:020000040800F2
:10000000A8120020D5000008612B00086725000811
:1000100000000000000000000000000000000000E0
:10002000000000000000000000000000C72C0008D5
:100030000000000000000000AD2B00084731000860
:10004000E7000008E7000008E92B0008E7000008C7
:10005000E7000008E7000008E7000008E9080008DA
:1000600000000000E7000008E7000008E7000008C3
:10007000B1060008E7000008000000002132000877
:1000800000000000E7000008000000000000000081
:10009000E700000800000000E7000008E700000893
:1000A000E7000008E7000008E7000008E700000894
:1000B000E7000008E7000008000000000000000062
:1000C0000348854600F0E2FA00480047514700081F
:1000D000A81200200448804704480047FEE7FEE7D6
:1000E000FEE7FEE7FEE7FEE7CD310008C1000008AD
:1000F00030B50B46014600202022012409E00D46C0
:10010000D5409D4205D31D469540491B2546954047
:1001100040191546521E002DF1DC30BDF0B51FB45C
:100120000646002082B005464024019100901BE065
:10013000019922460F46304600F0F6F9049A059BD5
:10014000801A994110D310461946224600F0DCF976
:10015000361A8F410197224601200021009F00F0AE
:10016000D3F938184D4100902046641E0028DFDC8A
:10017000019B00982946324607B0F0BDD2B201E09B
:100180000270401C491EFBD270470022F6E710B5F2
:1001900013460A4604461946FFF7F0FF204610BDF5
:1001A000421C0178401C0029FBD1801A704770B5B1
:1001B00002464A40D50F40004A00ED074008520869
:1001C000002814D0002A12D0C40DD30D4102012002
:1001D000C0055202490A520AE41A091812187D345D
:1001E000914201D3641C00E04900002C01DA002098
:1001F00070BD0023914201D3891A0343400849008E
:100200000028F7D100290AD0914202D10121C90763
:1002100005E0914201D2012101E00121C943E0053D
:10022000C018401900F091F970BD420005D042009D
:10023000120E52428A4201DB00207047C90508189D
:1002400070470000F0B51FB488B00B9909980024DE
:1002500048400999C00F490049080991C0070B9906
:100260000090490049080B9109990898A64608434F
:100270001CD00B990A98084318D009980124400013
:10028000420D4800410D099824050003000B20434E
:1002900009900B980003000B20430B9050181C4949
:1002A0004018002201901446104605E00020014647
:1002B0000DB0F0BD032801DA034600E003239C469D
:1002C000C11A0AAE0AE05F0008ADED5B4F00F75BB4
:1002D0007D430027AA187C41491C5B1E6145F2DD65
:1002E000410004AB5A522104120C0A43240C401C56
:1002F0000828DFDB01980290009970460191009078
:10030000059B049A0799069800F06DF9D0E7000064
:100310000DFCFFFFF0B50C465C4085B0E40FE40730
:1003200003944C000026640859009446490802468C
:100330000296224321D062460A431ED06200570D26
:100340004A000E032303550D012402462C492405BF
:10035000781B1B0B360B4018234326436146009045
:100360001C46501AB44103D30098401C009002E090
:10037000921800985B41002803DA0020014605B07E
:10038000F0BD0020012109050746864611E06446BC
:100390001D46141BB54106D36546521BB341744636
:1003A00007430C43A646CD07400849082843921846
:1003B0005B4105460D43EAD11046184313D0604611
:1003C000194650407140084306D06046101AB341A8
:1003D00006D20122002306E000220123DB0702E00F
:1003E0000122D2435310009874460105381C614124
:1003F000029C039D0019694100F0E8F8BFE7000086
:10040000FD030000C217C10F504010B54018CA07C5
:100410009623002100F0A1F810BD10B5002296230C
:10042000114600F09AF810BD0EB505490291002161
:1004300000910A460B46019100F0D5F803B000BDCB
:1004400033040000410040020122400AD205090E97
:1004500080187F2901DA00207047962903DC962254
:10046000511AC84070479639884070474A000903BE
:100470000123090B1B051943094B10B5520D9A4274
:1004800001DA002010BD064B34339A4203DC9A1A7D
:1004900000F04AF810BD03495118884010BD000013
:1004A000FF030000CDFBFFFFC20FD2074000400852
:1004B0000BD0C10D0723DB01C91840020905400A12
:1004C0001143C2084007114370470020014670479E
:1004D000CB0FDB07490010B5490802460A4307D095
:1004E0000A0D07240903E401090B121B002A01DC91
:1004F000002010BDC900440F0C43C100E018D20514
:10050000801800F022F810BD10B5202A04DB014647
:10051000203A9140002010BD914020239C1A0346B0
:10052000E3401943904010BD10B5202A04DB084673
:10053000203AD040002110BD0B46D340D0402024AB
:10054000A21A91400843194610BD002904DA401C44
:10055000490001D140084000704770B40024050CE8
:1005600005D11024000402D1002921D01124050E48
:1005700001D100020834050F01D10001241D850FAF
:1005800001D18000A41C002801DB4000641C00296C
:1005900008D020252E1B0D46F540A14000D001219A
:1005A0002943084301061B1B000ADB1D02D500205E
:1005B00070BC7047DB05181880180029F8DA401C59
:1005C0004900F5D170BC40084000704710B5002BC1
:1005D00008DA0024401C614192185B411A4301D1A2
:1005E0004008400010BDF0B51FB482B005460C00B5
:1005F00003D0084603F034F802E003F031F820306D
:100600000246009021462846FFF77EFF049B059A8C
:1006100004460F4618431143084314D018461043AC
:100620001BD0009840210A1A18460599FFF77CFF55
:1006300005460E46009A05990498FFF765FF0843A2
:1006400005D0012004E02046394607B0F0BD002067
:10065000C11705430E432C43374300990E98630599
:10066000401A7905E40A00220C43FD0A0A3002D53B
:1006700000200146E9E70105101969410C9C0D9D18
:1006800000196941FFF7A2FFDFE70000064C0125D2
:10069000064E05E0E36807CC2B430C3C984710342A
:1006A000B442F7D3FFF710FDD04A0008F04A000823
:1006B00010B5024800F018FA10BD0000E00000205C
:1006C00070B5044600688168490720D58168102606
:1006D0004907002905DA8168890702D48168314316
:1006E000816000F0F7FD05460DE000F0F3FD401BD2
:1006F0000A2808D9606D30436065A06D0121084368
:10070000A065084670BD206880684007EDD40020D1
:1007100070BD000038B50446064805490068FFF77B
:10072000E7FC604300E0401E00900028FBD138BD8C
:1007300040420F0044000020F8B50446006881687C
:100740008907890F012925D10168C90722D081684D
:10075000052211401025012601290FD181680222AE
:100760001143816021680320086000F0B3FD074653
:100770000CE000F0AFFDC01B0A2807D9606D2843CC
:100780006065A06D3043A0650120F8BD20688068D9
:10079000C007EED10020F8BDF8B5044600688168B6
:1007A0008907890F012902D10168C90722D181680F
:1007B000114A10261140012500290ED181682943D4
:1007C00081600120FFF7A6FF00F084FD07460CE0E2
:1007D00000F080FDC01B0A2807D9606D30436065BA
:1007E000A06D2843A0650120F8BD20680068C043C3
:1007F000C007EDD10020F8BD1700008010B502F051
:1008000073FA10BDF8B515460C46064601F048FFD0
:10081000A02001F015FF01F07DFF00280FD1E0B20C
:1008200001F00EFF01F076FF002808D101F038FF3B
:10083000A12001F005FF01F06DFF002803D001F0B9
:1008400051FF0020F8BD00246F1E0BE001F0D0FE28
:100850003055BC4202D001F087FE01E001F0ACFE51
:10086000641CA4B2AC42F1D301F03CFF0120F8BDFE
:10087000F7B517460C46002530E0002D01D0600783
:100880001CD101F02FFF002601F00AFFA02001F08B
:10089000D7FE01F03FFF002805D0761C7D20B6B2C0
:1008A000C0008642F0D37D20C00086420ED0E0B268
:1008B00001F0C6FE01F02EFF002807D10098405D30
:1008C00001F0BEFE01F026FF002803D001F00AFF70
:1008D0000020FEBD641C6D1CA4B2ADB2BD42CCD3E1
:1008E00001F000FF0120FEBD10B5FF20013000F037
:1008F00019FC0120400200F015FC0120800200F0EC
:1009000011FC0120C00200F00DFC0120000300F0EA
:1009100009FC10BD70470000F8B506460D4640368C
:10092000317C01290DD00121317401688A68520798
:1009300009D5416D2022114341650020307401200A
:10094000F8BD0220F8BD174B6A68D80547109A42D7
:10095000154C8A6A2B6812D05B035B0B1A438A62C0
:100960002968490305D5A1680143A1600A20FFF762
:10097000D1FE2868800312D5A06838430EE05B03DF
:100980005B0B9A438A622968490302D5A1688143B7
:10099000A1602868800302D5A068B843A060002049
:1009A0003074F8BD011000000027014010B500F0C0
:1009B00098F8FFF732FD124C0B21C9436060FFF736
:1009C00034FCFFF771FD0F4A0F4BFFF73BFC0F4A5A
:1009D0000F4BFFF737FC00220E4BFFF79BFC00226A
:1009E0000D4BFFF72FFCFFF773FDA060FFF72AFD0B
:1009F000C1B2217009A002F023FE0120607010BD79
:100A0000600000206666666666660A40CDCCCCCC87
:100A1000CCCC064000000E4000005940B5B1C7B034
:100A2000B5E7D1B93D25640D0A00000070B504009A
:100A300043D0606D0221084360652046FFF740FE09
:100A40000026054600283AD0012D32D020684168A2
:100A50001F4A114041602168D043086020688168C6
:100A600001221207914381602068C168194A114030
:100A7000C16020680169184A11400161206841691C
:100A8000C908C90041612068016A144A1140016225
:100A900020688030416BC909C901416320688030FA
:100AA000416BC909C9014163204600F06FF9A66591
:100AB000666540342674284670BD012070BD20460E
:100AC000FFF73AFE05460128F3D001206065BDE737
:100AD00060F7FFFF00023E8302FCFF3F00F000F0E2
:100AE00070470068006C704770B504460068016884
:100AF000490702D54168490705D40168090734D57B
:100B00004168090731D5616DC90604D4616D0122C0
:100B1000520211436165C1680C250905890F00293E
:100B20001BD12021095D002917D10168090714D5BF
:100B300081684A070121002A08DB4268AA43426013
:100B4000606D0A0290430843606506E0606D2022F4
:100B500010436065A06D0843A0652046FFF726FF9F
:100B6000A069012801D02068056020680168090695
:100B70000DD5406800060AD5606D012109040843BF
:100B80006065204600F000F9216880200860206838
:100B90000168C90613D54168C90610D5216B102517
:100BA000002902D0C168C90707D0A16D02221143F4
:100BB000A16505602046FFF793FF2068056070BDC2
:100BC00070B5040006D0606D26460025403600282A
:100BD00002D006E0012070BDA5653574204600F006
:100BE000EDF8606DC00603D421688868400705D51C
:100BF000606D1021084360653574EBE7606DFF227E
:100C00000132904302221043606588688207920F88
:100C10005B48012A02D10A68D2072BD103236268FC
:100C20009B079A4205D05B429A4202D05B009A42EF
:100C300009D10A69920092080A6121680A69636809
:100C40001A430A610CE00A69920092080A618168FD
:100C50000F22920491438160816862681143816030
:100C60002168CA6818239A43CA602168CA68A368C1
:100C70001A43CA60816801225206914381608168EB
:100C8000A28E52061143816020688168C90004D495
:100C9000816801221207114381602068C168394AC6
:100CA0001140C1602069E168022825D0002001437D
:100CB000204620300278037B52035B001A43114325
:100CC000226B1143A26992031143E269D2031143DB
:100CD0002268D3681943D160616A0A46FF3AC23A72
:100CE00005D0A26A11432268D3681943D1604278C3
:100CF0000121012A02D00BE00420D8E70078002867
:100D000023D0606D202210436065A06D0843A0656C
:100D1000E06B012820681FD00169C90703D0016971
:100D200049084900016120684169C908C900416159
:100D300020684169A26B11434161A565606D80081F
:100D40008000401C6065002070BD2068C2680123DF
:100D50001B041A43C260DBE70269FF239B009A432E
:100D6000026120680269236CA66C1A43636C3343EA
:100D70001A430261206802690A430261D3E7000056
:100D8000002701401902FEFF7047000010B50068FF
:100D9000084988420CD10848416B42159143416390
:100DA00005200121000700F07DF80C2000F0F8FA82
:100DB00010BD0000002401400010024010B586B0B4
:100DC000044614216846FFF7E0F90E49206888427E
:100DD00015D10D48416B421511434163C26A01218F
:100DE0000A43C262C06A0091084005900320019046
:100DF0000020029005206946000700F09FF906B028
:100E000010BD0000002401400010024070B50446EF
:100E1000216800208968490732D425464035297C5D
:100E200001292DD001212974E169012904D020462E
:100E3000FFF7B2FC002818D1616D124A1140FF2261
:100E40000132114361650021A165297422681C21CA
:100E5000116063690422082B08D023685D680D4384
:100E60005D6021688B6813438B6070BD21684B689F
:100E700093434B6021684B6818252B434B60F0E788
:100E8000022070BDFEF1FFFF70B5044600F022FAAB
:100E90000546601C00D0641C00F01CFA401BA042F8
:100EA000FAD370BDF0B500235DE001249C402246DA
:100EB0000A4057D006685F000325BD402E43AC466C
:100EC0000660DD08AD002D182E6AAE465D07EF0EF8
:100ED0000F25BD40AE4375462E6286686546AE431B
:100EE00086604568A5434560C4686546AC43C460F8
:100EF0009D081F4CAD002D19AF689C07260F0F24CD
:100F0000B440A4463C4005273F07B84201D1002722
:100F100014E0184FB84201D101270FE0164FB84234
:100F200001D102270AE0154FB84201D1032705E09D
:100F3000134FB84201D1052700E00627B740A7426A
:100F400010D1AE686446A643AE600E4C256895434A
:100F50002560656895436560A5689543A560E5686B
:100F60009543E5605B1C0A46DA409ED1F0BD000067
:100F7000000001400004005000080050000C005028
:100F8000001C005000040140F8B506460A20FFF797
:100F90007BFF5A4801270078594D0024012803D0CF
:100FA00058480078012860D101200003864210D102
:100FB0000A20FFF769FF05203146000700F07AF9A3
:100FC000002833D150A002F03BFB504807702F702F
:100FD00030E0F01FFF38FA380ED001208002864240
:100FE00024D10A20FFF750FF05203146000700F00A
:100FF00061F9002812D015E00A20FFF745FF012112
:1010000005204902000700F055F9002803D13F48A8
:101010000770022028700120400205E03B4807705D
:101020000320287001208002394948613748007840
:1010300001280BD133480078012807D135480078C2
:10104000012805D034480078012801D0334807E052
:1010500002F004FE00063149000E087002D02B4851
:10106000047000E02C702A4846610120C0028642CC
:1010700019D10A20FFF708FF05203146000700F0CC
:1010800019F9002809D16878002800D1AF701D48EF
:10109000007801281F4803D004700120C00218E026
:1010A00007702C70F9E7F01FF93814D10A20FFF708
:1010B000EBFEFF2105200131000700F0FBF80028BE
:1010C00005D1104800780128134813D00470FF2080
:1010D00001300F4948610E484661114E30780128B1
:1010E00007D108480078012803D12C7003F002FCD6
:1010F0003470F8BD07702C70E9E700000300002091
:101100005C000020060000203100000004000020E8
:101110000004014007000020080000203D000020DE
:101120003C00002010B504494A69024202D04861DF
:10113000FFF72AFF10BD000000040140F8B50023AE
:101140000124A2E027469F403A4070D04D68022D0E
:1011500001D0122D14D1DD08AD002D1800952D6A97
:101160005E07AC46F50E0F26AE46AE406546B5436B
:10117000AC460E697546AE4065462E43009D2E6214
:101180004D68012D05D0022D03D0112D01D0122D57
:1011900016D185680326AC465D00AE46AE40654676
:1011A000B543AC46CE687546AE4065462E43866074
:1011B00046680D79BE43ED06ED0F9D403543456011
:1011C00006685F000325BD40AE46AE430D79B446C8
:1011D000AE07B60FBE4065462E430660C66875462C
:1011E000AE438D68BD403543C5604D68ED004BD5BD
:1011F000294D6E6B26436E639E08284DB600751907
:10120000AC46AD689E07360F0F27B740BD43052794
:101210003F07B84201D1002715E0214FB84201D164
:10122000012710E01F4FB84202D102270BE02BE04C
:101230001D4FB84201D1032705E01C4FB84201D130
:10124000052700E00627B7402F436546AF60184DDD
:101250002E684F689643FF0300D516432E606E68D4
:101260004F689643BF0300D516436E60AE684F6863
:101270009643FF0200D51643AE60EE684F68964372
:10128000BF0200D51643EE605B1C0A681546DD40C0
:1012900000D057E7F8BD00000010024000000140F8
:1012A0000004005000080050000C0050001C0050CA
:1012B000000401400069084000D0012070474269E5
:1012C0004A4042617047002A01D0816170478162C3
:1012D000704700000148006870470000400000208F
:1012E00002480168491C016070470000400000206E
:1012F00010B50848002401684022114301602046CF
:1013000000F00AF8002801D0012401E000F03CF8C8
:10131000204610BD0020024000B5014687B00022E3
:101320000F2000F051F80F2000F044F81248816BB4
:1013300001221143816305A9684600F0F5F900F028
:1013400013FA0E49FEF7D4FE01220D4992070A60F6
:101350000C4A401ECA604860002008618860084648
:1013600000F03AFF002802D0012007B000BD044879
:1013700000F04DFFF9E700000010024040420F006E
:1013800038020020E70300000448416B01221143AA
:101390004163816B02041143816370470010024076
:1013A000C106C90E0120884001490860704700004D
:1013B00080E100E0C106C90E0120884001490860B3
:1013C0007047000000E100E010B501F0CDFB10BD5A
:1013D000BFF34F8F04490348C860BFF34F8F00BF6E
:1013E000FDE700000400FA0500ED00E00248016896
:1013F0000215114301607047007000400248016807
:101400004215114301607047007000400A4B1A6892
:101410009208920002431A600848036904221343A9
:101420000361012906D040BF20BF20BF016991435D
:101430000161704730BFF9E70070004000ED00E047
:10144000F8B504460078544D800672D5524E0027F8
:10145000403EB06BC00004D4B06BA9050843B06334
:1014600001274E480168C90511D40168821511434E
:101470000160FFF72FFF009005E0FFF72BFF0099B9
:10148000401A642837D845480068C005F5D5326849
:101490000321090560680A400140914208D0810398
:1014A000890F032904D13168890301D50120F8BDD2
:1014B0002A69032109040A4022D0084090421FD023
:1014C000207880061CD528692A6988430121C9042F
:1014D0000A432A612A698A432A612861C0050FD517
:1014E000FFF7F8FE009008E0FFF7F4FE0099411ABC
:1014F0002B48814201D90320F8BD28698005F3D526
:1015000061688803800F032805D132680005824393
:1015100001400A43326028690322616812041140C5
:1015200008432861002F04D0B16B012000078143DC
:10153000B1632078C00705D0E868A1688008800002
:101540000843E8602078800705D5E8680C218843C7
:10155000E1680843E8602078400706D5E868032181
:101560008902884321690843E8602078000706D58E
:10157000E86803210903884361690843E86020782B
:10158000000606D5E868032189048843A169084359
:10159000E8600020F8BD00004010024000700040EC
:1015A0008813000070470000F8B50E4605007DD096
:1015B00053480068C007C00FB0420AD250480168C3
:1015C00049084900314301600068C007C00FB042BC
:1015D00071D128784B4C800705D5E068F02188430D
:1015E000A9680843E0602878C00752D068680228DC
:1015F00017D0032818D02168012818D089050029A0
:1016000059DAE168890889000143E160FFF762FE69
:1016100069680746022912D003291CD0012926D067
:1016200033E021688903EAE721688901E7E7490790
:10163000E5E7FFF74FFEC11B3348814223D8E0683E
:101640000007800F0228F4D123E0FFF743FEC11BFF
:101650002D48814217D8E0680007800F0328F4D195
:1016600017E0FFF737FEC11B274881420BD8E0681F
:101670000007800F0128F4D10BE0FFF72BFEC11B00
:101680002148814201D90320F8BDE0680007800F9E
:10169000F3D11B480168C907C90FB1420DD90168D0
:1016A0004908490031430160006800E003E0C007D9
:1016B000C00FB04201D00120F8BD2878400706D500
:1016C000E068072109028843E9680843E060287858
:1016D000000707D5E0680721C90288432969C900C6
:1016E0000843E06000F060F8E168084A0906090F65
:1016F000515CC840064908600020FFF70DFEF8BDA8
:10170000002002400010024088130000AC4A00088C
:1017100044000020034801680122D2041143016003
:10172000704700000010024010B50F2202600C4A02
:10173000D3689B079B0F4360D368F02423408360EA
:10174000D46807231B021C40C460D268D2081A4028
:10175000026104480068C007C00F086010BD0000A7
:101760000010024000200240044805490068C96892
:10177000044A4905490F515CC840704744000020A5
:1017800000100240C54A0008044805490068C968BD
:10179000044A8904490F515CC84070474400002046
:1017A00000100240C54A000810B5184AD1680C2044
:1017B000084004280BD0082810D00C2810D05068FE
:1017C0000004410F0120C003491C884010BD10686F
:1017D000C00601D50E4810BD0E4810BD0E4810BD04
:1017E00088020E4B000F185C0902D368890F491C50
:1017F000DB0301D5084A05E01268D20601D5044A88
:1018000000E0044A5043FEF773FC10BD0010024094
:1018100000093D000024F40000127A00BC4A0008D0
:1018200010B5044C6069C00503D5FFF7BBFEA015D9
:10183000A06110BD00100240FEB505007ED0FE4C38
:10184000E7680C20E668074001200004064028787D
:10185000C00747D0082F05D00C2F0AD10120000463
:10186000864206D1206880033CD568680028E5D010
:1018700038E0012069680004814203D121680143F6
:10188000216011E0052301221B0492049942216882
:1018900002D111432160F1E78143216021680140B9
:1018A0000091206890432060686800280DD0FFF701
:1018B00011FD009005E0FFF70DFD0099401A642826
:1018C0007AD820688003F6D50CE0FFF703FD00907E
:1018D00005E0FFF7FFFC0099401A6428F0D8206863
:1018E0008003F6D42878800755D50923E868042FAB
:1018F0000DD00C2F01D1002E09D000283BD021683B
:10190000994301432160FFF7E5FC064627E0216883
:10191000490701D5002891D061681F221202914326
:101920002A691202114361602168994301432160D1
:10193000FFF73AFFE16809060A0F00E079E1BF49C5
:10194000895CC840BE4908600020FFF7E5FC00281C
:1019500072D120E0FFF7BEFC801B0228B0D82068BF
:101960004007F7D560681F210902884329690902E9
:10197000084360600FE02068400840002060FFF7E7
:10198000A9FC064604E0FFF7A5FC801B022897D8B7
:1019900020684007F7D42878C0065FD5002F0CD008
:1019A000A869002849D02068FF2101310843206040
:1019B000FFF790FC06462DE0C0E02068800502D5C8
:1019C000A8690028A7D06068072149038843296ACD
:1019D000084360606068297F0002000A0906084326
:1019E0006060286A410B0120C003491C8840E168FF
:1019F00009060A0F9149895CC84091490860002096
:101A0000FFF78AFC002817D128E0FFF763FC801B52
:101A10000228A3D820688005F7D56068072149030C
:101A20008843296A084360606068297F0002000AD1
:101A300009060843606011E0E1E02168FF20013001
:101A400081432160FFF746FC064604E0FFF742FCB5
:101A5000801B022872D820688005F7D42878794E38
:101A6000000724D568690028306910D00121084397
:101A70003061FFF72FFC009005E0FFF72BFC009989
:101A8000401A02285AD830698007F6D50FE040087E
:101A900040003061FFF71EFC009005E0FFF71AFCE4
:101AA0000099401A022849D830698007F6D428786E
:101AB000400765D500200290A06BC00006D4A06B43
:101AC000012109070843A063012002905E480168D4
:101AD000C90511D40168821511430160FFF7FAFBB3
:101AE000009005E0FFF7F6FB0099401A642825D81E
:101AF00055480068C005F5D5FF20AA68013082422C
:101B000003D131690143316111E001218902002AC9
:101B100007D005231B029A4203D132690A4332617E
:101B2000EFE7326982433261306988433061A868E7
:101B300000280FD0FFF7CEFB009007E05EE0FFF734
:101B4000C9FB0099411A4148814257D83069800544
:101B5000F5D50DE0FFF7BEFB009006E0FFF7BAFBFE
:101B60000099411A3948814248D830698005F5D436
:101B70000298002804D0A06B012109078843A063C4
:101B8000686A002864D00C2F3ED001263606022851
:101B9000206805D0B0432060FFF79CFB05462FE08E
:101BA000B0432060FFF796FB074604E0FFF792FB87
:101BB000C01B022822D820688001F7D4E96AA86AED
:101BC000E2680843296BFD231B049A431143084331
:101BD000E060206830432060FFF77CFB054604E0AE
:101BE000FFF778FB401B022808D820688001F7D552
:101BF0002EE0FFF76FFB401B022801D90320FEBD3A
:101C000020688001F5D423E00128F8D0E0680121A4
:101C10000904AA6A014091420BD10F218904EA6AA2
:101C20000140914205D1032189050840296B884272
:101C30000ED00120FEBD000000100240AC4A00089A
:101C40004400002040100240007000408813000053
:101C50000020EFE7F7B5054604462035287882B026
:101C6000012814D001202870022068702168CA2041
:101C70004862216853204862206880680026400539
:101C8000FF27002812DAFFF725FB00900AE0022068
:101C900005B0F0BDFFF71EFB0099411A7D20C00082
:101CA00081421CD82068C0684007F3D4206881684E
:101CB00001229202914381602068C1688022114014
:101CC000204A8918C160FFF705FB00900DE0FFF77F
:101CD00001FB0099411A7D20C000814205D920688E
:101CE0004762032068702E70D2E72068C068400702
:101CF000EDD521680398486120688168C908C9004A
:101D0000816020688168049A114381600E480268EE
:101D1000012109050A43026082680A438260206843
:101D20008168012292031143816020688168121149
:101D30001143816020684762012068702E70002086
:101D4000A6E700007FFBFFFF0004014010B5064836
:101D50000178012906D10021017002F0CBFD034872
:101D6000FFF754F810BD00003C000020E000002008
:101D700010B504460068C068400509D52046FFF745
:101D8000E5FF2068C16880221140054A8918C160BA
:101D9000012004490005486101202034607010BD15
:101DA0007FFBFFFF00040140F8B5040050D025463A
:101DB00020356878002803D12870204600F052F8BA
:101DC000022068702168CA20486221685320486256
:101DD000204600F0ECFEFF2604270028206802D0F1
:101DE00046626F7034E081681D4A1140816021684D
:101DF00088686268A369104322691A4310438860A7
:101E00002168E06808612068016922891204114391
:101E100001612068C16880229143C1602068C16C63
:101E200089088900C164E169606901432068C26C66
:101E30001143C1642068806880060BD4204600F0FE
:101E400021F8002806D0206846626F7000202870B4
:101E50000120F8BD20684662012068700020F8BDAE
:101E6000BFFF8FFF00680549884205D1044801691A
:101E700001229204114301617047000000280040D4
:101E80004010024070B504460068C168A02291432A
:101E9000C160FFF71FFA7D260546F60006E0FFF752
:101EA00019FA401BB04201D9032070BD2068C068F8
:101EB0008006F4D5002070BD70B5040012D0022158
:101EC0002046403005464174206801684022914315
:101ED0000160204600F048F80021616569742974AA
:101EE000084670BD012070BD70B5040007D0002603
:101EF00025464035A662687C002802D005E0012016
:101F000070BD2E74204600F043F8022068742068EB
:101F10000168402291430160A1686068226908431A
:101F2000E16811430843616901220843A169520233
:101F300011400843E1690843216A0843A16A084344
:101F400021680860A0690421000C0840616A084308
:101F5000216848602068C16992009143C16166654B
:101F600001206874002070BD10B5006806498842E1
:101F700009D10648416B8214914341630520E02159
:101F80000007FEF78FFF10BD003001400010024037
:101F900010B586B0044614216846FEF7F6F81049DD
:101FA0002068884219D10F48416B82141143416364
:101FB000C16A01221143C162C06A0021104005902C
:101FC000E0200090022001900320039002910491F0
:101FD000052069460007FFF7B1F806B010BD000004
:101FE0000030014000100240FFB5044683B00120DC
:101FF00001900020264640360090307C0C9F1D4604
:1020000001280FD001203074FFF764F90290707C32
:10201000616801280DD0CA1FFD3A08D1A1680029C6
:1020200005D102E0022007B0F0BD042801D0022053
:10203000C3E00498002828D00598002825D0002D5A
:1020400023D0707C042801D00520707400206065C6
:102050000599A163E587A58704992163E586A5868F
:102060002064606420680168490603D40168402246
:10207000114301600121E068C9028842606848D1CB
:10208000002804D0012D02D03CE0012095E0206B17
:1020900021680088C860206B801C2063E08E401E91
:1020A000E0862FE020688168890710D5E18E00293D
:1020B0000DD0019901290AD1216B0988C160206BDB
:1020C000801C2063E08E401EE08600200190206886
:1020D0008168C9070DD0E18F00290AD0C068A16BC3
:1020E0000880A06B801CA063E08F401EE087012069
:1020F0000190FFF7EFF801460298081AB84201D3A1
:10210000781C59D1E08E0028CCD1E08F0028C9D1AD
:1021100046E0002801D0012D3CD1206B21680078D9
:102120000873206B401C2063E08E401EE08631E087
:1021300020688168890710D5E18E00290DD00199AA
:1021400001290AD1216B09780173206B401C20639F
:10215000E08E401EE0860020019020688168C9075B
:102160000DD0E18F00290AD0C068A16B0870A06B68
:10217000401CA063E08F401EE08701200190FFF724
:10218000A9F80299401AB84202D3781C02D013E091
:10219000002F11D0E08E0028CAD1E08F0028C7D1CF
:1021A00039462046029A00F027FD002807D001207A
:1021B00000902020606509E00320009006E0A06800
:1021C000002803D12068C1688068019001207074E4
:1021D00000203074009826E770B5040005D025462D
:1021E0002035687E002802D006E0012070BD002066
:1021F0002876204600F00AF802206876211D206823
:1022000001F016F801206876002070BD7047026862
:10221000D36801210B43D360006882685207520FD4
:10222000062A02D002680A43026000207047704705
:1022300070B50446006801690025C9438907002973
:1022400015DBC168C943890711D4E91E016101206A
:102250002076206880698007204602D0FFF7E7FFDC
:1022600004E000F078F8204600F076F82576206843
:102270000169C943490717D4C168C943490713D441
:102280000421C9430161022020762068806980050D
:10229000800F204602D0FFF7CAFF04E000F05BF891
:1022A000204600F059F8257620680169C9430907DE
:1022B00016D4C168C943090712D40821C943016172
:1022C000042020762068C0698007204602D0FFF7EE
:1022D000AEFF04E000F03FF8204600F03DF8257620
:1022E00020680169C943C90617D4C168C943C90632
:1022F00013D41021C9430161082020762068C069E9
:102300008005800F204602D0FFF791FF04E000F027
:1023100022F8204600F020F8257620680169C9439C
:10232000C90708D1C168C943C90704D1891E016121
:10233000204600F012F820680169C943490609D413
:10234000C168C943490605D44021C94301612046FB
:1023500000F00CF870BD7047704710B5006801219F
:102360008907884201D1FEF7BBFF10BD704770B5E9
:10237000040017D0242060672068016849084900DC
:102380000160206800250560206845602068856040
:10239000204600F03FF8E5676567A567603425745F
:1023A000002070BD012070BD10B5040003D0606F27
:1023B000002802D007E0012010BD00217020015547
:1023C000204600F03DF82420606720680168490835
:1023D00049000160204600F0EDFF0128ECD0606A62
:1023E000002802D0204600F04FFF206841680922F3
:1023F000D20291434160206881682A229143816022
:1024000020680168012211430160204600F0A2FF0C
:1024100010BD000010B500680649884209D1064881
:10242000416B0122920391434163C0210348FEF7AF
:1024300039FD10BD0038014000100240000400507A
:1024400010B586B0044614216846FDF79EFE0F497C
:102450002068884218D10E48416B01229203114333
:102460004163C26A02210A43C262C06A0191084004
:102470000590C02000900021032002910491039058
:1024800069460448FEF75AFE06B010BD0038014008
:102490000010024000040050FFB50446406F83B0B6
:1024A00017460D4620285CD1002D0AD0002F08D0F9
:1024B000A168C001814207D12069002804D1E80742
:1024C00002D0012007B0F0BD204660300290007CB1
:1024D000012846D00298012101740020E0672120E4
:1024E0006067FEF7F7FE2646403601903782778216
:1024F0000120A1680003814202D12069002802D096
:102500002F46002511E000270FE000228021204601
:1025100001F064F8002815D1002F15D02168387813
:1025200088627F1C708A401E7082708A019B00281E
:1025300006980090E9D100224021204601F04EF893
:10254000002808D00320BDE728882168C005C00DF9
:102550008862AD1CE6E720206067029900200874BD
:10256000B0E70220AEE7FEE770B501240E4D64022D
:10257000002221462846FEF7A6FE00F017F80122A9
:10258000160231462846FEF79EFE00F00FF80022A4
:1025900031462846FEF797FE00F008F80122214652
:1025A0002846FEF790FE70BD000400500020401C3D
:1025B000C0B20528FBD3704770B50C4C0122510204
:1025C0002046FEF780FEFFF7F1FF012215022946A3
:1025D0002046FEF778FEFFF7E9FF00222946204655
:1025E000FEF771FEFFF7E2FF70BD0000000400502F
:1025F000F8B50024FF27114E254601376006040E6A
:10260000012239463046FEF75EFEFFF7CFFF01217B
:1026100049023046FEF74EFE002801D0641CE4B2A9
:10262000002239463046FEF74EFEFFF7BFFF6D1C15
:10263000EDB2082DE2D32046F8BD000000040050A2
:10264000F8B50024FF27154E05460137280601D5A9
:10265000012200E00022012149023046FEF733FE4C
:10266000FFF7A4FF012239463046FEF72CFEFFF7A4
:102670009DFF002239463046FEF725FE072C04D187
:10268000012251023046FEF71EFE6806050EFFF7D6
:102690008DFF641CE4B2082CD8D3F8BD00040050B0
:1026A00070B501220E4D540221462846FEF70BFE5E
:1026B0000122160231462846FEF705FEFFF776FF97
:1026C000002221462846FEF7FEFDFFF76FFF00229D
:1026D00031462846FEF7F7FDFFF768FF70BD0000A2
:1026E0000004005070B50124094D64020022214607
:1026F0002846FEF7E8FD012211022846FEF7E3FD19
:10270000FFF754FF012221462846FEF7DCFD70BD8D
:102710000004005070B50122104D54022146284695
:10272000FEF7D1FDFFF742FF01221602314628468F
:10273000FEF7C9FDFFF73AFF21462846FEF7BAFD2E
:10274000002801D0012400E0002400223146284660
:10275000FEF7B9FDFFF72AFF204670BD00040050C8
:1027600070B5204E0446012228213046FEF7ABFD0D
:10277000002208213046FEF7A6FD0520FEF784FB67
:10278000E007C00F002500280ED0012208213046A6
:10279000FEF799FD3C2001F01DFC00220821304687
:1027A000FEF791FD14200DE0012208213046FEF7CE
:1027B0008AFD142001F00EFC002208213046FEF7AD
:1027C00082FD3C2001F006FC6408E0076D1CC00F90
:1027D000EDB2082DD7D3012208213046FEF773FD54
:1027E00070BD00000004005070B5294D29492868CB
:1027F00040182949884237D22879000900012871F8
:10280000902831D80107254C090F0DD10011030084
:1028100000F03DFF0A3A38363432302E2C08060AD2
:102820001F4800E01F482060687900090001014648
:1028300060396871612917D201090220491E884058
:10284000FDF7E0FD2168FDF7B2FC6060A8790E217C
:102850000840A871801E072806D2072028560F2896
:1028600002DCE87A7F2811D9002070BD0E48DAE733
:102870000E48D8E70E48D6E70E48D4E70E48D2E710
:102880000E48D0E70E48CEE70E48CCE7012070BDD9
:102890005000002080B85EE681CE341D4800002044
:1028A0000000FA4300007A430000FA4200007A4236
:1028B000D7A326420000FA41D7A3A64185EB794170
:1028C0005C8F264185EBF9401CB50021184800912A
:1028D000164A01910260C163816003220124816371
:1028E0009207046142600246C16020321170FF23EA
:1028F0005170C233436281621173016381610422AA
:1029000041634261C161FEF75BF9002801D0FEF727
:1029100001F8012000030190694600940448FDF786
:10292000FBFF002801D0FDF7F5FF1CBD002401408E
:10293000E0000020F0B587B014216846FDF725FCC3
:102940004348C26A04210A43C262C26A0A4005922D
:10295000C26A80210A43C262C26A0A400592C16A01
:1029600001252943C162C16A29400591C26A022139
:102970000A43C262C06A2A46084005900520102119
:102980000007FEF7A0FC344F012232493846FEF71B
:102990009AFC6803002400900194694602942F4831
:1029A000FEF7CCFB032080030326009069460196C6
:1029B00002942A48FEF7C2FB0E20009005206946CB
:1029C000019602940007FEF7B9FB10200090052045
:1029D00002946946019503940007FEF7AFFB00954A
:1029E00002946946384601950394FEF7A7FB1C48FC
:1029F00000906946019602943846FEF79FFB154801
:102A00000294401E00906946019503943846FEF7F3
:102A100095FB0F2040020090124E0520694601965A
:102A200002950007FEF78AFB280200900520694600
:102A3000019602940007FEF781FBE8030090052051
:102A40000194694602940007FEF778FB07B0F0BDD9
:102A50000010024029F1000000040050000800505E
:102A6000160E00000000211010B5002201210220E6
:102A7000FEF7AAFC0220FEF79DFC0022022107209F
:102A8000FEF7A2FC0720FEF795FC002211460C2061
:102A9000FEF79AFC0C20FEF78DFC10BD10B50F4818
:102AA0000D49016024228260002141600161416181
:102AB0000B4A8161C260C161FFF776F9002801D03D
:102AC000FDF728FF042207490448FFF7C3F8002850
:102AD00001D0FDF71FFF10BD002800403C01002081
:102AE000E7030000FEFF000010B50E480C4901602E
:102AF000FF210531416000218160C16001614161B8
:102B0000C161012201625202416282618162072138
:102B1000C162FFF7E9F9002801D0FDF7FBFE10BD07
:102B2000003001406001002010B50C480A490160E6
:102B3000E1214902416000218160C1600161816140
:102B4000C1610C22016242614162FFF72DFC002845
:102B500001D0FDF7DFFE10BD00380140B8010020B4
:102B600010B5FEF75DFE10BD8307FF22DB0E9A4015
:102B70008907090E994000280BDA0007000F083872
:102B8000830808489B001818C36993430B43C3612B
:102B90007047830804489B001B181868904308433B
:102BA0001860704700ED00E000E400E0704770B589
:102BB00004460068C168490613D40021C943C160B6
:102BC000FEF788FB7D260546F60006E0FEF782FB51
:102BD000401BB04201D9032070BD2068C068400688
:102BE000F4D5002070BD000010B50248FFF7C0F812
:102BF00010BD00003C01002038B504464068FF23AA
:102C000005332025984204D100920B4600228021F2
:102C100007E05120005D05280DD100920B460022EF
:102C20000121204600F009F8002804D0606D2843F7
:102C30006065032038BD002038BDF8B51D46174635
:102C40000E46044609E0681C07D0FEF743FB0699D0
:102C5000401AA8420BD2002D09D020688168304666
:102C600088432ED00020B842EDD10020F8BD206866
:102C70004168E022914341606068C11FFD390CD179
:102C80000121A068C903884202D04911884204D1B9
:102C9000206801684022914301600120A16A40033D
:102CA000814207D121680A6882430A6021680A6864
:102CB00002430A6001204034607400202074032025
:102CC000F8BD0120CFE7704710B5002804D00020E0
:102CD00000F01AF9012003E0012000F015F90020AE
:102CE00000F0DEF910BD000010B5012149030248D3
:102CF000FEF7E0FA10BD000000080050FEB52348C2
:102D000023490068234A4118914201D30120FEBDA6
:102D1000FDF78AFB0022204BFDF7FCFAFDF7A6FB2E
:102D200004460020694608700871087200F086F9B0
:102D3000260CF1B2062000F0E7F9250AE9B20720D7
:102D400000F0E2F9E1B2082000F0DEF96946062061
:102D500000F0DBF801A9072000F0D7F802A908204D
:102D600000F0D3F869460978F0B2884209D1694683
:102D70000979E8B2884204D16946097AE0B288420A
:102D800001D00220FEBD0020FEBD0000500000204A
:102D900080B85EE681CE341D80844E407CB5FFF75E
:102DA00023FD00281ED000F0E5F80021012000F0EE
:102DB000ABF98021012000F0A7F98121012000F06A
:102DC000A3F90025684605709121242000F09CF9A4
:102DD0006946242000F099F868460078912803D0CD
:102DE00002207CBD01207CBD4021412000F08CF9F7
:102DF00023210C2000F088F9FFF780FF00F056F83F
:102E000006210A2000F080F93B210B2000F07CF91C
:102E1000214C2220E17A00F077F92179A079014351
:102E2000A07A012801D0012000E0002001431D20EC
:102E300000F06AF9607A6179012808D00020014326
:102E40001E2000F061F96079602802D013E00420B0
:102E5000F5E76846057101A9312000F056F868468B
:102E60000079C108C9003120491D00F04DF90C213D
:102E7000372000F049F90848832108384068C9051F
:102E8000884201DD082100E00021042001432620C2
:102E900000F03AF900207CBD50000020024610B539
:102EA000052010210007FEF70EFA10BD38B5154CAD
:102EB000072020560F2801DD012038BD00F0BEF8A4
:102EC000E079F0252843C1B2092000F01DF9002166
:102ED000684601706946092000F017F8072161561D
:102EE000684600782943814201D0022038BD207A0B
:102EF000012805D084214D2000F006F9002038BDBE
:102F00008721F8E750000020704710B5012200F03B
:102F100001F810BD70B5044615460E460020FFF7B7
:102F2000BDFF6006400E00F015F8002405E000200B
:102F300000F010F83055641CE4B2AC42F7D3012025
:102F4000FFF7ACFF70BD0A4610B501460020FFF741
:102F5000E1FF10BD01B582B07D20C00000900123CB
:102F600001AA02A90248FFF73FF8684600790EBDA2
:102F70006001002010B5094C002201212046FEF717
:102F8000A2F9C820FDF780FF012211462046FEF776
:102F90009AF9C820FDF778FF10BD0000000400502A
:102FA0007CB5054601A91920FFF7AFFF68460179F6
:102FB0001B4C080607D5C843401C0006800E694616
:102FC0000871404202E088086946087160811A2051
:102FD000FFF79BFF0A20205E002803DA6946097884
:102FE000081A05E0684600780F210001FDF780F817
:102FF000A43820810B4CA07A012808D121460B313E
:103000001320FFF782FF00210D2000F07DF8E17A08
:103010002846FFF798FFFF21122000F075F87CBDCD
:10302000740200205000002010B58121012000F022
:103030006BF88021012000F067F810BD10B58121E8
:10304000012000F061F810BD10B58121012000F0D1
:103050005BF80021202000F057F80A21212000F021
:1030600053F80E48C17A222000F04EF80020FFF7F6
:103070002BFE00210D2000F047F8FF21122000F068
:1030800043F8BF21112000F03FF80021402000F05C
:103090003BF88521012000F037F810BD50000020DA
:1030A0007047000070B504468121012000F02CF823
:1030B0000021202000F028F80A21212000F024F827
:1030C000104D2220E97A00F01FF80120FFF7FCFDE7
:1030D00080210D2000F018F8EA7A2146002000F047
:1030E00019F8FF21122000F00FF8F721112000F04D
:1030F0000BF84021084600F007F88321012000F07A
:1031000003F870BD5000002013B5012201A900F0A2
:1031100001F81CBD70B5044615460E460020FFF7A9
:10312000BDFE204680210843FFF714FF002404E081
:10313000305DFFF70FFF641CE4B2AC42F8D301200E
:10314000FFF7ACFE70BD704710B59AB034216846E9
:10315000FDF71BF814210DA8FDF717F81C2112A884
:10316000FDF713F8184801680322D2029143C214F4
:1031700089180160092000900121500105910190FA
:103180000A90C001022100240C900B94099168461A
:10319000FEF752FB0F200D9003200E9080200F9021
:1031A0001094002111940DA8FEF7FEF92120129031
:1031B000012040041390149412A8FEF741F9FEF781
:1031C000A9FA1AB010BD0000007000401048016854
:1031D000821511430160C1680E4A1140C160016847
:1031E0000D4A114001608168490849008160016809
:1031F0000122920491430160C168FD2212049143AF
:10320000C160002101610549C0038860704700006A
:10321000001002400C40FF88F6FFF6FE00ED00E0D3
:1032200010B50248FFF704F810BD00003802002076
:1032300070B5026801239B07114C124D984203D0D0
:10324000A04201D0A84203D17026B2434E68324357
:10325000984203D0A04201D0A84204D103231B020C
:103260009A43CB681A4380239A430B691A4302603E
:103270008A68C262096881620121416170BD0000F3
:10328000000801400014014010B5818CC90707D027
:1032900001684A6801235B049A43836A1A434A60BF
:1032A000818C890707D501684A6801231B049A436A
:1032B000C36A1A434A60818C490707D501684A6886
:1032C00001239B049A43036B1A434A60818C0907CC
:1032D00007D501684A680123DB039A43436B1A430D
:1032E0004A60818CC90607D50268916801231B03D7
:1032F0009943836B19439160818C890607D50168D6
:103300008A6801235B039A43C36B1A438A60818CEA
:10331000490612D503685A6801210905046C8A43DD
:1033200022435A60026C8A4207D102685168032323
:103330005B059943436C19435160818C090607D59D
:1033400001684A680123DB04806C9A4302434A60A7
:1033500010BD0000F8B500260446C667FDF7BAFFA9
:10336000054620680068124F000709D501212B4649
:10337000002249052046009700F030F900280DD1C1
:103380002068006840070BD501212B4600228905E3
:103390002046009700F022F9002801D00320F8BD54
:1033A00020206067A067603426740020F8BD00000C
:1033B000FFFFFF01F8B504462669A268E7693243BA
:1033C0006669102000253E432368324378491E6811
:1033D000784F3E4016431E6023685A680326360322
:1033E000B243E66832435A602368A2698B4201D037
:1033F000266A32439E680B273F02BE4316439E60F7
:103400006D4E23686D4AB3420CD1D2689207920F79
:1034100006D0012A38D0022A34D0032A20D11EE057
:1034200001201DE0664EB3420AD1D2680C2632401C
:1034300026D0042A28D0082A24D00C2A10D10EE045
:103440008B420DD1D66803229202164018D0012279
:103450009202B61A18D0B61A14D0964200D108209B
:10346000564A0126403A574FF6038B4236D1002880
:103470000CD002280DD0042812D008281FD11CE03F
:103480000020EDE70220EBE70420E9E7FEF76CF906
:1034900008E01068C00601D5384605E04A4803E058
:1034A000FEF782F9002873D06268510051188142FA
:1034B00005D81103814202D303E03046F4E7012529
:1034C00066E0010E06025008002330185941FCF74F
:1034D00025FE03210902411A3C4A55E0E169B14247
:1034E00032D1030000F0D3F809070A0D06250606BD
:1034F000062B0600E3E7FEF737F91CE0FEF744F978
:1035000019E010686168C00602D54808304A01E039
:10351000304A48088018FCF7EBFD80B201462E4A7D
:1035200010399142CBD8511C01400007400F08438D
:103530002CE0FEF739F9616840004A08EAE7616863
:10354000012248081204E5E7030000F0A0F809078B
:103550000A0D06260606062C0600B0E7FEF704F95B
:103560001DE0FEF711F91AE010686168C00602D587
:103570004808C01902E014484A081018FCF7B8FDC2
:1035800080B20146144A1039914298D82168C86027
:103590000020206660662846F8BDFEF705F96168E0
:1035A0004A088018EAE7616848088019E6E70000E1
:1035B00000480040F369FFEF00380140401002402E
:1035C0000044004000093D000024F400FFFC0F000F
:1035D00000127A000048E801EFFF0000FFB581B05B
:1035E00017460E4604460A9D09E0681C07D0FDF701
:1035F00071FE0499401AA8420CD8002D0AD0206808
:10360000C1693046884318D00020B842EDD0002070
:1036100005B0F0BD20680168FF22A132914301602E
:103620002068816849084900816020206067A067A0
:103630000020603420740320EAE70120E5E7000061
:103640000FB410B503A9044B044A029800F03CF8EB
:1036500010BC08BC04B01847E94400086C00002006
:103660002021020C01D010211046020A01D0104680
:103670000839020901D01046091F820801D01046FE
:10368000891E420801D0881E7047081A704730B45E
:103690007446641E2578641CAB4200D21D46635DEF
:1036A0005B00E31830BC184702E008C8121F08C1CD
:1036B000002AFAD170477047002001E001C1121FB3
:1036C000002AFBD170470000FFB591B00F460546B8
:1036D000002606E025280AD0149A139990476D1CFD
:1036E000761C28780028F5D1304615B0F0BD0024AE
:1036F00000940121F34A029400E004436D1C2B78EE
:103700000846203B98401042F7D128782A280ED04E
:10371000022128780246303A092A15D8009A0A234D
:103720005A43303A80180C436D1C0090F1E701CFEA
:103730000090002805DA012040030443009840422D
:103740000090022004436D1C28782E2815D10420F7
:10375000044368786D1C2A280AD101CF6D1C0290A1
:103760000BE002990A225143303940186D1C029037
:103770002878014630390929F3D928786C2810D0E7
:1037800006DC4C281AD068280ED06A2817D104E02D
:10379000742813D07A2812D110E001204005044388
:1037A0000CE00121090501E0032109050C436978BA
:1037B000814203D10120000524186D1C6D1C28785E
:1037C00003906E281ED00CDC632831D004DC002866
:1037D0008AD0582811D1B2E064287BD069280CD156
:1037E00078E073282DD004DC6F2870D0702804D1C5
:1037F000A7E075286CD078286BD0149A139990475D
:10380000761C62E06002400F022807D003280AD02D
:10381000042838680AD006603F1D56E03868F11762
:1038200006604160F8E738680680F5E70670F3E760
:103830003878694608740020487404A80390012071
:1038400003E0386803900020C0433F1D61070FD597
:10385000002101E00199491C029A0191914213DA79
:103860008142F7DB019A0399895C0029F2D10BE0D0
:10387000002101E00199491C01918142FADB019A82
:103880000399895C0029F5D101990098139A401A8F
:1038900000902146149B00F03BF9019980194618CD
:1038A00007E0039803990078491C0391149A13992F
:1038B00090470198401E0190401CF2D12146149B74
:1038C000139A009800F014F986196D1C09E741E07D
:1038D00033E034E00A200021049005916002410F9A
:1038E000022905D001CFC2179446032905D007E06D
:1038F000FF1DFF08FF0003CF06E000B2C217944689
:10390000042902D140B2C1178C4600226146944579
:1039100006DA0A460021404291418C462D2102E000
:10392000210504D52B216A461176012103E0E10728
:1039300001D02021F7E7019154E00A200BE010208C
:1039400009E0102004900021042004430820059180
:10395000029003E008200021059104906002410FCD
:10396000022905D001CF00229446032906D006E0A3
:10397000FF1DFF08FF0003CF8C4603E080B204293F
:1039800000D1C0B20021019121072BD503997029E4
:1039900006D0049A1021059B4A401A4305D00EE038
:1039A00040216A461176012108E06146014306D0B4
:1039B00030216A4611760399517602210191049AC9
:1039C0000821059B4A401A430CD16146014301D1AD
:1039D000610707D530216A461176012101910299CC
:1039E000491E02910399582904D037A103910FA9C8
:1039F0000F910DE039A1F9E76146059B049AFCF7A8
:103A00008DFB039B8C469B5C0F9A521E0F9213708A
:103A100061460143F0D10F9807A9081A203003909E
:103A2000600704D5012000048443029801E00120CE
:103A300002900399884201DD401A00E000204118FD
:103A40000290019809180098401A0090E00306D4EB
:103A50002146149B139A009800F05AF8861900200A
:103A6000049008E006A9085C149A139990470498FA
:103A7000401C761C049001998842F3DBE0030CD5CE
:103A80002146149B139A009800F042F8861904E02E
:103A9000149A302013999047761C0299481E029080
:103AA0000029F5DC08E00F980F990078491C0F9168
:103AB000149A13999047761C0399481E0390002985
:103AC000F1DCFBE60928010030313233343536377A
:103AD000383961626364656600000000303132335A
:103AE00034353637383941424344454600000000FA
:103AF000F8B5044600251E461746880404D405E0A0
:103B000039462020B0476D1C641EF9D52846F8BD03
:103B1000FFB50446002581B01E46C80301D53027F5
:103B200000E02027880404D505E038460399B04713
:103B30006D1C641EF9D5284605B0F0BD70B514485B
:103B400004250168134801607021017190214171C1
:103B500085710F21C17101210172417281720A21A7
:103B6000C172FFF71BF9044601460BA0FFF768FD81
:103B7000002C08D0FF24F5340AA0FFF761FD204691
:103B8000FDF782F9F8E702481438057470BD0000AB
:103B900014000020500000206173746174653D259D
:103BA000640D0A006C6F726120696E697420666131
:103BB000696C0D0A0000000030B587B0142168461A
:103BC000FCF7E3FA1148C26A01210A43C262C06AE3
:103BD000052508400590C8020D4C029100902D0764
:103BE000019469462846FDF7A9FAFF2001300090AC
:103BF00000200290019469462846FDF79FFAFEF7DF
:103C00004DFFFEF731FF07B030BD0000001002404D
:103C10000000211070B50122002411460748FCF76E
:103C2000F1FD002808D0054D05A02978FFF708FD13
:103C30002878AA2800D10124204670BD0000002069
:103C4000666163746F72795F706172616D657465CE
:103C5000725F666C61673D256400000070B50024EA
:103C6000244800F04FFC01282FD1FF20F530FDF74C
:103C70000BF90022204C1F4B114610461D5C265CA0
:103C8000B54201D1521CD2B2401CC0B20628F5D3B5
:103C9000194C00200A341D5C265CB54201D1491C38
:103CA000C9B2401CC0B20628F5D37D24E400062A20
:103CB0000DD0062913D00820FEF752FD2046FDF74F
:103CC000E3F82046FDF7E0F80024204670BD092007
:103CD000FEF746FD2046FDF7D7F80124F5E707A0DB
:103CE000FFF7AEFC0920FEF73BFD2046FDF7CCF8C0
:103CF0000224EAE7D4000020280000207869616FE0
:103D00006A696E676368656E67000000F8B52E4CDF
:103D1000E079012801D100F075FD207A012801D158
:103D200000F080FB294E307800284CD00025012778
:103D300001281ED1FFF782F9234BA7709B1C184660
:103D4000212201210F3000F037FD21496070C87237
:103D50002048FFF7A7F90D20FEF702FD7D20C000E7
:103D6000FDF792F835701CA0FFF76AFCFDF730FBF9
:103D7000E5713078022826D1357019A0FFF760FC74
:103D8000FFF75CF9104BA7709B1C1846132201210A
:103D90000F3000F011FD0E496070C8720D48FFF73A
:103DA00081F90B20FEF7DCFC0122D1030E48FDF760
:103DB0008AFA7D20C000FDF767F8A572E572E5710B
:103DC000257200F0D1FDF8BD000000203D0000206C
:103DD00050000020700000203132333435000000E4
:103DE00038383838000000000004005070B5134C1B
:103DF0002078012820D1FFF721F9114B032201215E
:103E0000104800F0D9FC0F4D0146113D68700EA01E
:103E1000FFF716FC10496878C8721048FFF742F99E
:103E2000002020707D24E4002046FDF72DF8204678
:103E3000FDF72AF800F098FD70BD00006100002039
:103E400060000020110000207061636B5F6C656E84
:103E50003D25640D0A000000500000207000002085
:103E6000F8B54E4E0027307B3C46012820D0022872
:103E70001BD0042817D1FCF7C1FC012813D16846D8
:103E8000047069461220FFF740F8FF211220FFF767
:103E90003BF968460078010701D5022002E04006A0
:103EA00001D5012030733846F8BDFFF7C7F871E03F
:103EB0003B491320FFF729F83A48FFF771F8FFF75D
:103EC000BDF8374D374A0B3DE87A114600F06CF8E3
:103ED000344908785A285DD14878A5285AD10879FC
:103EE000012857D12D4A48791132012806D00228DD
:103EF0001BD006283DD007284CD128E07079012836
:103F000048D00120707100200B189B791354401C7D
:103F1000C0B20228F8D30020EA7A02E00C54401C18
:103F2000C0B28242FAD8012734E0887813789842E8
:103F300030D1C878527890422CD10020EA7A02E041
:103F40000C54401CC0B28242FAD8022722E0887882
:103F5000137898421ED1C878527890421AD1002026
:103F6000EA7A02E00C54401CC0B28242FAD803271D
:103F700010E08878137898420CD1C8785278904233
:103F800008D10020EA7A02E00C54401CC0B2824200
:103F9000FAD80427FFF758F8042083E70000002030
:103FA0005B000020A200002010B5002304E0CC5CE0
:103FB000641ED4545B1CDBB28342F8DB10BD10B529
:103FC000002304E0CC5C641CD4545B1CDBB2834251
:103FD000F8DB10BDC10041180648416101210161B3
:103FE000002181610269D30701D0D203FAD50161B2
:103FF0008161704700E000E0F8B50020CE4C0090F1
:10400000E07B7D250126CD4FED000300FFF73FFB50
:10401000130B2526345D68859F25A8C125D0E5FBB7
:10402000F9F8F7F62500FFF7F5FD012804D0C4A044
:10403000FFF706FB022002E10D20E073BE480622D6
:104040000A212830FCF7DEFBBB480622142132305F
:10405000FCF7D8FBBFA0FFF7F3FA6AE10220FEF7F6
:104060007FFB2846FCF710FF2846FCF70DFFBE49F2
:10407000002008700320E2E0AF48E670283000F02E
:1040800041FA0128E9D10020AB4FE07006462837FD
:10409000BA5D3146B5A0FFF7D3FA761CF6B2062E0C
:1040A000F6D32846FCF7F0FEA34806220A21283062
:1040B000FCF7DEFB0320FEF753FB2846FCF7E4FE8B
:1040C0002846FCF7E1FE0420B9E00420FEF748FB97
:1040D0002846FCF7D9FE2846FCF7D6FE0520AEE0C0
:1040E0009548E670323000F00DFA0128B5D1002075
:1040F000E0702846FCF7C8FE8F48062214213230B3
:10410000FCF7B6FB0520FEF72BFB2846FCF7BCFEB0
:104110002846FCF7B9FE062091E09AA0FFF790FA36
:10412000FEF78CFF844B01229B1C1846A67011469B
:104130000F3000F041FB6070014698A0FFF780FA55
:104140006078F8729948FEF7ADFF072077E0FFF737
:1041500087FE012896D196A0FFF772FA09206EE03B
:1041600097A0FFF76DFAFEF769FF32218F48FCF741
:104170000CF8714BA6709B1C1846022201210F30CF
:1041800000F01AFB6070F8728848FEF78BFF0A2077
:1041900055E0FFF765FE0228A8D10620FEF7E0FAF9
:1041A0002846FCF771FE2846FCF76EFE0D2046E01F
:1041B0000720FEF7D5FA2846FCF766FE2846FCF7EE
:1041C00063FE84A0FFF73CFA5520207001221146BF
:1041D0005948FCF74DFB112031E0FEF72FFF564BFD
:1041E0000722283318460121173800F0E5FA6070DD
:1041F000F8726E48FEF756FF0E2020E077E020E0D0
:1042000018E006E0FFE7FFF72BFE0328A2D10F20FE
:1042100015E0FEF713FF484B062232331846012102
:10422000213800F0C9FA6070F8726048FEF73AFF72
:10423000102004E0FFF714FE04287AD10C20E0736C
:1042400077E05A48E670643000F05CF9012870D1DC
:1042500039490020C8707D20C000FCF715FE0025FC
:1042600060A0FFF7EDF9514E00246436325D21461F
:1042700062A0FFF7E5F9641CE4B2062CF6D32E4FDA
:10428000002428373A5D214638A0FFF7D9F9641C8D
:10429000E4B2062CF6D30020315C3A5C914201D1A5
:1042A0006D1CEDB2401CC0B20628F5D329465AA0B9
:1042B000FFF7C6F9062D0BD00820FEF751FA7D2432
:1042C000E4002046FCF7E0FD2046FCF7DDFD30E091
:1042D0000920FEF745FA7D24E4002046FCF7D4FDD2
:1042E0002046FCF7D1FD14481221C17321E0FEF7EE
:1042F000A5FE32212D48FBF748FF0F4BA6709B1CF3
:104300001846202201210F3000F056FA6070F87232
:104310002648FEF7C7FE0E20FEF722FA2846FCF7D5
:10432000B3FD2846FCF7B0FD3D48A671067001209C
:1043300000900098F8BD0000000000205000002010
:10434000BDF8D0D0D3C3BBA7C3DCC2EBC9E8D6C38A
:104350000D0A0000D3C3BBA7C3DCC2EBD2D1BEADF4
:10436000C9E8D6C30D0A00005C00002075736572B1
:104370005F70617373776F72645B25645D3D256464
:1043800000000000C7EBC7F3BAF3CCA8B7D6C5E46A
:10439000C9E8B1B8BAC50D0A000000007061636BCE
:1043A0005F6C656E3D25640D0A0000007000002002
:1043B000B7D6C5E4C8EBCDF8B3C9B9A60D0A00005D
:1043C000C9E8B1B8BAC5D2D1BEADC4C3B5BD0D0A36
:1043D00000000000B3F6B3A7C9E8D6C3CDEAB3C95D
:1043E0000D0A0000636865636B5F70617373776FBC
:1043F00072645F6E756D0D0A000000007573657262
:104400005F74656D705F70617373776F72645B2545
:10441000645D3D2564000000623D256400000000ED
:104420005D00002070B5214CE07A002813D00128EF
:104430002AD002280ED11EA0FFF702F90121C903DC
:104440001E48FCF73CFF1020FEF78AF9FF20F530EC
:10445000FCF71AFD70BDFEF7F1FD144B01259B1C06
:104460001846A570042229460F3000F0A5F96070A7
:10447000014613A0FFF7E4F815496078C8721548A3
:10448000FEF710FEE57270BD13A0FFF7D9F80C20FF
:10449000FEF766F97D25ED002846FCF7F5FC284679
:1044A000FCF7F2FC0220E07270BD0000000000206A
:1044B000B1A8BEAFC9F9D2F40D0A00000004005043
:1044C0007061636B5F6C656E3D25640D0A000000D2
:1044D0005000002070000020B7C0B2F0C6F4B6AFA4
:1044E000B1A8BEAF0D0A000013B5044B0122694606
:1044F0000348FDF7D1FF00981CBD0000FFFF00003E
:10450000B801002070B50646002500F0DFF9184C10
:10451000012804D002280AD0032819D110E0012074
:10452000FEF71EF9607B401C6073012006E0607B93
:10453000401C60730120FEF713F90220A07307E00E
:104540000320A073607B401C60730120FEF708F914
:10455000607B072803D23118A27B2039CA7706284E
:1045600003D1012500206073A073284670BD0000B0
:1045700000000020F8B55B4C207C012822D00228E6
:104580001DD004281AD1FCF739F9012816D121468B
:1045900009311220FEF7B9FCFF211220FEF7B4FD0D
:1045A000607A010703D5022020744FA004E0400682
:1045B00004D50120207450A0FFF742F8F8BDFEF7A3
:1045C0003DFD8AE04F491320FEF79FFC4D4F0B3F06
:1045D000F87AF8724C48FEF7E3FCFEF72FFD4A4AE2
:1045E000F87A1146FFF7E0FC0026474D06E0AA5D89
:1045F000314646A0FFF724F8761CF6B2F87AB042AE
:10460000F5D8384E46A0113672783178FFF718F891
:1046100028785A2861D168782946A5285DD18878FC
:104620003278904259D1C8787278904255D1087941
:10463000012852D1487901250026ED0304280CD029
:1046400009283AD0122802D0132846D10DE03AA00A
:10465000FEF7F6FFE671A6723FE0012229463B48CD
:10466000FCF731FE2672E67237E0FEF7E7FC012028
:104670001C4BA0709B1C0146184613220F3000F003
:104680009BF86070F87220483238FEF70BFD0B2063
:10469000FEF766F8012229462C48FCF714FE7D251A
:1046A000ED002846FCF7F0FB2846FCF7EDFBE67131
:1046B000A672267100F058F90FE00A4A0020323243
:1046C0000B189B791354401CC0B20628F8D3054838
:1046D000062214213230FCF7CBF8FEF7B5FC04209B
:1046E0002074F8BD0000002073656E64207375634C
:1046F0006573730D0A00000072782073756365732B
:10470000730D0A005B000020A20000205258627561
:10471000666665725B25645D3D253032780D0A0062
:10472000B5B1C7B0C9E8B1B8B5D8D6B73A25642D88
:1047300025640D0A00000000BAF3CCA8CAD5B5BDA7
:10474000B1A8BEAFD6B8C1EE0D0A000000040050FB
:10475000FCF7CEFDFEF7F8FCFEF7ECF8FEF7B4F838
:10476000FEF7E2F9FEF7C0F9FEF798F9FEF77CF9DB
:10477000FFF7E4F90C4C002505E02078012802D170
:10478000FCF726FE2570FFF737FC0128F5D107A0BE
:10479000FEF756FF00F0E8F8FFF7ECFEFFF7B6FA79
:1047A000FFF724FBF8E700005E000020BDF8C8EB2F
:1047B000736C656570000000F8B51F460F4C5A23F6
:1047C0002370A52363700378A3704078E070217193
:1047D00006266271002505E0785DA055761C6D1CEB
:1047E000F6B2EDB23846FBF7DBFCA842F4D8044A37
:1047F00002493046FFF7E3FB3046F8BD8402002053
:104800007000002070B5214C21A0A17AFEF718FF9E
:10481000A07A00280FD0012826D002280AD18103CF
:104820001F48FCF74CFD1020FDF79AFFFF20F530E4
:10483000FCF72AFB70BDFEF701FC144B01259B1C05
:104840001846A570122229460F30FFF7B5FF607099
:10485000014614A0FEF7F4FE16496078C8721648A7
:10486000FEF720FCA57270BD14A0FEF7E9FE0A2039
:10487000FDF776FF7D25ED002846FCF705FB284671
:10488000FCF702FB0220A07270BD000000000020B7
:1048900072616E675F73746174653D25640000002A
:1048A000000400507061636B5F6C656E3D25640DA4
:1048B0000A0000005000002070000020D2BBBCFCA9
:1048C000C6F4B6AFB1A8BEAF0D0A0000084800217B
:1048D0000278012A06D0022A07D0032A01D10170EA
:1048E000032070470170012070470170022070475B
:1048F0005C00002010B51648FDF739FD154C052069
:1049000021460007FCF7CEFA21461348FCF7CAFA05
:1049100021461248FCF7C6FAFCF7EAFCFEF714FC45
:104920000B48FDF724FD0E48FCF780F80D48FDF715
:10493000C3FAFDF7FFFFFDF7C7FFFEF7F5F8FEF737
:10494000D3F8FEF7ABF8FEF78FF8FFF7F7F810BDD6
:10495000B8010020FFFF000000080050001C0050BC
:10496000E00000206001002010B5FEF75DFB00F0C4
:1049700003F800F087F810BDF0B501203C4987B07E
:10498000000548613B4801680427394301603A4CFF
:10499000A06B21040843A063FCF730FDFCF726FD63
:1049A000E16878038143E160E06A3843E062E06AED
:1049B00038400590E06A80210843E062E06A0840E0
:1049C0000590E06A01210843E062E06A0840059032
:1049D000E06A02210843E062E06A0325084005908E
:1049E000880300266A4661C269462448FCF7A6FB94
:1049F00010206A4661C2052069460007FCF79EFB4D
:104A0000002228211D48FCF75EFC1D480090012073
:104A10000290019569461948FCF790FBC0206A4650
:104A200061C269461548FCF789FB0B2040026A46C3
:104A300061C2052069460007FCF780FB78036A46DF
:104A400061C2052069460007FCF778FBE06A400870
:104A50004000E062E16A02208143E162E06AB8431B
:104A6000E062E16A80208143E16207B0F0BD0000AE
:104A7000000401400070004000100240000400509B
:104A80002971000010B5074901200870FFF794F85C
:104A90000548816B02041143816301210846FCF73C
:104AA000B5FC10BD3C0000200010024000000000DA
:104AB00000000000010203040607080903040608B9
:104AC0000C10182030000000000102030400000058
:104AD000F04A00080000002070000000A83600081E
:104AE000604B00087000002038120000B836000843
:104AF00000000000000000000000000004000000B2
:104B00000000000080D60F1C40FF7A1D80FB651E50
:104B100000A1BC33C0CA89360102030102030000B0
:104B20000000010203020202000000000000000079
:104B300000000000000020000000FA436F12833FD5
:104B400080A1031C9080020F0101014000000000C1
:104B50000000000000000000000000000000000055
:04000005080000C12E
:00000001FF
