:020000040800F2
:1000000080120020D500000875230008DB1D0008C1
:1000100000000000000000000000000000000000E0
:10002000000000000000000000000000A324000801
:100030000000000000000000C12300082329000880
:10004000E7000008E7000008C5230008E7000008F3
:10005000E7000008E7000008E70000084506000880
:1000600000000000E7000008E7000008E7000008C3
:10007000E7000008E700000800000000FD29000874
:1000800000000000E7000008000000000000000081
:10009000E700000800000000E7000008E700000893
:1000A000E7000008E7000008E7000008E700000894
:1000B000E7000008E7000008000000000000000062
:1000C0000348854600F024FA00480047CD3D00086B
:1000D000801200200448804704480047FEE7FEE7FE
:1000E000FEE7FEE7FEE7FEE7A9290008C1000008D9
:1000F00030B50B46014600202022012409E00D46C0
:10010000D5409D4205D31D469540491B2546954047
:1001100040191546521E002DF1DC30BDF0B51FB45C
:100120000646002082B005464024019100901BE065
:10013000019922460F46304600F038F9049A059B93
:10014000801A994110D310461946224600F01EF934
:10015000361A8F410197224601200021009F00F0AE
:1001600015F938184D4100902046641E0028DFDC48
:10017000019B00982946324607B0F0BDD2B201E09B
:100180000270401C491EFBD270470022F6E710B5F2
:1001900013460A4604461946FFF7F0FF204610BDF5
:1001A000421C0178401C0029FBD1801A704770B5B1
:1001B00002464A40D50F40004A00ED074008520869
:1001C000002814D0002A12D0C40DD30D4102012002
:1001D000C0055202490A520AE41A091812187D345D
:1001E000914201D3641C00E04900002C01DA002098
:1001F00070BD0023914201D3891A0343400849008E
:100200000028F7D100290AD0914202D10121C90763
:1002100005E0914201D2012101E00121C943E0053D
:10022000C018401900F0D3F870BD0000F0B50C46BE
:100230005C4085B0E40FE40703944C00002664089A
:1002400059009446490802460296224321D062464C
:100250000A431ED06200570D4A000E032303550DBA
:10026000012402462C492405781B1B0B360B401831
:1002700023432643614600901C46501AB44103D3E1
:100280000098401C009002E0921800985B41002802
:1002900003DA0020014605B0F0BD00200121090568
:1002A0000746864611E064461D46141BB54106D339
:1002B0006546521BB341744607430C43A646CD071F
:1002C00040084908284392185B4105460D43EAD18E
:1002D0001046184313D060461946504071400843F9
:1002E00006D06046101AB34106D20122002306E070
:1002F00000220123DB0702E00122D24353100098C1
:1003000074460105381C6141029C039D0019694136
:1003100000F09EF8BFE70000FD030000C217C10F08
:10032000504010B54018CA079623002100F057F836
:1003300010BD00000EB505490291002100910A464A
:100340000B46019100F091F803B000BD33040000AA
:100350004A0009030123090B1B051943094B10B57A
:10036000520D9A4201DA002010BD064B34339A42F6
:1003700003DC9A1A00F01AF810BD0349511888409E
:1003800010BD0000FF030000CDFBFFFF10B5202AC9
:1003900004DB0146203A9140002010BD914020230B
:1003A0009C1A0346E3401943904010BD10B5202A23
:1003B00004DB0846203AD040002110BD0B46D34054
:1003C000D0402024A21A91400843194610BD0029AC
:1003D00004DA401C490001D140084000704770B465
:1003E0000024050C05D11024000402D1002921D0DD
:1003F0001124050E01D100020834050F01D10001BE
:10040000241D850F01D18000A41C002801DB4000C1
:10041000641C002908D020252E1B0D46F540A14064
:1004200000D001212943084301061B1B000ADB1DE4
:1004300002D5002070BC7047DB0518188018002911
:10044000F8DA401C4900F5D170BC40084000704704
:1004500010B5002B08DA0024401C614192185B4162
:100460001A4301D14008400010BDF0B51FB482B05E
:1004700005460C0003D0084602F0E0FC02E002F062
:10048000DDFC20300246009021462846FFF77EFF23
:10049000049B059A04460F4618431143084314D0A1
:1004A000184610431BD0009840210A1A1846059997
:1004B000FFF77CFF05460E46009A05990498FFF762
:1004C00065FF084305D0012004E02046394607B007
:1004D000F0BD0020C11705430E432C43374300995C
:1004E0000E986305401A7905E40A00220C43FD0AC0
:1004F0000A3002D500200146E9E7010510196941DB
:100500000C9C0D9D00196941FFF7A2FFDFE7000079
:10051000064C0125064E05E0E36807CC2B430C3C56
:1005200098471034B442F7D3FFF7CEFDC840000817
:10053000E840000838B50446064805490068FFF75A
:10054000D7FD604300E0401E00900028FBD138BD7D
:1005500040420F004C00002010B501F0B3FF10BD69
:10056000F8B515460C46064601F0D4FCA02001F073
:10057000A1FC01F009FD00280FD1E0B201F09AFCC6
:1005800001F002FD002808D101F0C4FCA12001F017
:1005900091FC01F0F9FC002803D001F0DDFC002003
:1005A000F8BD00246F1E0BE001F05CFC3055BC422E
:1005B00002D001F013FC01E001F038FC641CA4B28D
:1005C000AC42F1D301F0C8FC0120F8BDF7B51746E5
:1005D0000C46002530E0002D01D060071CD101F051
:1005E000BBFC002601F096FCA02001F063FC01F0AA
:1005F000CBFC002805D0761C7D20B6B2C000864218
:10060000F0D37D20C00086420ED0E0B201F052FC53
:1006100001F0BAFC002807D10098405D01F04AFCC7
:1006200001F0B2FC002803D001F096FC0020FEBDD2
:10063000641C6D1CA4B2ADB2BD42CCD301F08CFCE5
:100640000120FEBD10B5FF20013000F0A3FA01200B
:10065000400200F09FFA0120800200F09BFA012086
:10066000C00200F097FA0120000300F093FA10BDD9
:1006700070470000F8B506460D464036317C01292A
:100680000DD00121317401688A68520709D5416D86
:10069000202211434165002030740120F8BD022062
:1006A000F8BD174B6A68D80547109A42154C8A6AFC
:1006B0002B6812D05B035B0B1A438A6229684903DB
:1006C00005D5A1680143A1600A20FFF733FF286820
:1006D000800312D5A06838430EE05B035B0B9A439E
:1006E0008A622968490302D5A1688143A16028680C
:1006F000800302D5A068B843A06000203074F8BD24
:10070000011000000027014070B5040006D0606DA4
:10071000264600254036002802D006E0012070BDA4
:10072000A5653574204600F0D3F8606DC00603D48B
:1007300021688868400705D5606D10210843606511
:100740003574EBE7606DFF220132904302221043C3
:10075000606588688207920F5B48012A02D10A68A7
:10076000D2072BD1032362689B079A4205D05B42D4
:100770009A4202D05B009A4209D10A69920092081B
:100780000A6121680A6963681A430A610CE00A6910
:10079000920092080A6181680F229204914381605D
:1007A00081686268114381602168CA6818239A438E
:1007B000CA602168CA68A3681A43CA6081680122B6
:1007C0005206914381608168A28E52061143816076
:1007D00020688168C90004D481680122120711438E
:1007E00081602068C168394A1140C1602069E168B0
:1007F000022825D000200143204620300278037BC8
:1008000052035B001A431143226B1143A269920306
:100810001143E269D20311432268D3681943D160BE
:10082000616A0A46FF3AC23A05D0A26A11432268B9
:10083000D3681943D16042780121012A02D00BE02C
:100840000420D8E70078002823D0606D20221043D0
:100850006065A06D0843A065E06B012820681FD08B
:100860000169C90703D0016949084900016120688D
:100870004169C908C900416120684169A26B1143FF
:100880004161A565606D80088000401C60650020A6
:1008900070BD2068C26801231B041A43C260DBE7F5
:1008A0000269FF239B009A43026120680269236C5E
:1008B000A66C1A43636C33431A43026120680269D1
:1008C0000A430261D3E70000002701401902FEFF3E
:1008D00010B586B0044614216846FFF756FC0E4951
:1008E0002068884215D10D48416B42151143416380
:1008F000C26A01210A43C262C06A009108400590A1
:10090000032001900020029005206946000700F0B6
:100910004DF906B010BD0000002401400010024057
:1009200070B5044600F00EFA0546601C00D0641C49
:1009300000F008FA401BA042FAD370BDF0B50023C6
:100940005DE001249C4022460A4057D006685F00C3
:100950000325BD402E43AC460660DD08AD002D18D2
:100960002E6AAE465D07EF0E0F25BD40AE437546BD
:100970002E6286686546AE4386604568A54345603D
:10098000C4686546AC43C4609D081F4CAD002D197A
:10099000AF689C07260F0F24B440A4463C400527AF
:1009A0003F07B84201D1002714E0184FB84201D1E7
:1009B00001270FE0164FB84201D102270AE0154F78
:1009C000B84201D1032705E0134FB84201D10527F2
:1009D00000E00627B740A74210D1AE686446A643A0
:1009E000AE600E4C2568954325606568954365604B
:1009F000A5689543A560E5689543E5605B1C0A46DC
:100A0000DA409ED1F0BD000000000140000400501B
:100A100000080050000C0050001C00500004014071
:100A2000F8B504460A20FFF77BFF504801250078FF
:100A30004F4F504E012802D03878012856D101205E
:100A40000003844210D10A20FFF76AFF05202146E7
:100A5000000700F067F9002803D1474805704748B0
:100A60000570012000032CE0E01FFF38FA380ED09B
:100A700001208002844225D10A20FFF751FF052082
:100A80002146000700F04EF9002813D017E00A2095
:100A9000FFF746FF012105204902000700F042F957
:100AA000002804D134480221057034480170012027
:100AB000400206E0304803210570304801700120F3
:100AC000800270612C48007801280FD13878012805
:100AD0000CD102F0A5FC00062949000E087002D0D6
:100AE0000020254901E02549002008700120C002AE
:100AF000844217D10A20FFF713FF05202146000783
:100B000000F010F9002805D139781E48012904D0D9
:100B1000002101700120C0021AE005701AA002F045
:100B20007DF9F7E7E01FF93813D10A20FFF7F8FE47
:100B3000FF2105200131000700F0F4F8002805D15D
:100B40003978124801290FD000210170FF200130AF
:100B5000706174610E480078012804D1387801284A
:100B600001D103F0EFF9F8BD0570EFE703000020B5
:100B70000500002000040140040000206400002063
:100B80004400002006000020313536000700002018
:100B90003C00002010B504494A69024202D0486175
:100BA000FFF73EFF10BD000000040140F8B5002330
:100BB0000124A2E027469F403A4070D04D68022DA4
:100BC00001D0122D14D1DD08AD002D1800952D6A2D
:100BD0005E07AC46F50E0F26AE46AE406546B54301
:100BE000AC460E697546AE4065462E43009D2E62AA
:100BF0004D68012D05D0022D03D0112D01D0122DED
:100C000016D185680326AC465D00AE46AE4065460B
:100C1000B543AC46CE687546AE4065462E43866009
:100C200046680D79BE43ED06ED0F9D4035434560A6
:100C300006685F000325BD40AE46AE430D79B4465D
:100C4000AE07B60FBE4065462E430660C6687546C1
:100C5000AE438D68BD403543C5604D68ED004BD552
:100C6000294D6E6B26436E639E08284DB60075199C
:100C7000AC46AD689E07360F0F27B740BD4305272A
:100C80003F07B84201D1002715E0214FB84201D1FA
:100C9000012710E01F4FB84202D102270BE02BE0E2
:100CA0001D4FB84201D1032705E01C4FB84201D1C6
:100CB000052700E00627B7402F436546AF60184D73
:100CC0002E684F689643FF0300D516432E606E686A
:100CD0004F689643BF0300D516436E60AE684F68F9
:100CE0009643FF0200D51643AE60EE684F68964308
:100CF000BF0200D51643EE605B1C0A681546DD4056
:100D000000D057E7F8BD000000100240000001408D
:100D10000004005000080050000C0050001C00505F
:100D2000000401400069084000D00120704742697A
:100D30004A4042617047002A01D081617047816258
:100D4000704700000148006870470000480000201C
:100D500002480168491C01607047000048000020FB
:100D600010B5084800240168402211430160204664
:100D700000F00AF8002801D0012401E000F03CF85E
:100D8000204610BD0020024000B5014687B0002279
:100D90000F2000F047F80F2000F03AF81248816B5E
:100DA00001221143816305A9684600F0EBF900F0C8
:100DB00009FA0E49FFF79CF901220D4992070A60D2
:100DC0000C4A401ECA6048600020086188600846DE
:100DD00000F01CFE002802D0012007B000BD04482E
:100DE00000F02FFEF9E700000010024040420F0023
:100DF00034020020E70300000448416B0122114344
:100E00004163816B0204114381637047001002400B
:100E1000C106C90E012088400149086070470000E2
:100E200000E100E010B501F0A9FA10BDBFF34F8F4B
:100E300004490348C860BFF34F8F00BFFDE70000BF
:100E40000400FA0500ED00E00248016802151143B4
:100E5000016070470070004002480168421511436C
:100E600001607047007000400A4B1A6892089200B7
:100E700002431A60084803690422134303610129ED
:100E800006D040BF20BF20BF016991430161704778
:100E900030BFF9E70070004000ED00E0F8B504460F
:100EA0000078544D800672D5524E0027403EB06BFC
:100EB000C00004D4B06BA9050843B06301274E48B5
:100EC0000168C90511D40168821511430160FFF75B
:100ED00039FF009005E0FFF735FF0099401A6428BC
:100EE00037D845480068C005F5D5326803210905A3
:100EF00060680A400140914208D08103890F0329AC
:100F000004D13168890301D50120F8BD2A69032184
:100F100009040A4022D0084090421FD02078800661
:100F20001CD528692A6988430121C9040A432A611A
:100F30002A698A432A612861C0050FD5FFF702FF9D
:100F4000009008E0FFF7FEFE0099411A2B4881420D
:100F500001D90320F8BD28698005F3D561688803AD
:100F6000800F032805D132680005824301400A43FF
:100F70003260286903226168120411400843286125
:100F8000002F04D0B16B012000078143B1632078AA
:100F9000C00705D0E868A168800880000843E860C1
:100FA0002078800705D5E8680C218843E16808436C
:100FB000E8602078400706D5E86803218902884365
:100FC00021690843E8602078000706D5E868032116
:100FD0000903884361690843E8602078000606D564
:100FE000E868032189048843A1690843E860002078
:100FF000F8BD00004010024000700040881300005F
:1010000070470000F8B50E4605007DD053480068D3
:10101000C007C00FB0420AD25048016849084900D1
:10102000314301600068C007C00FB04271D1287819
:101030004B4C800705D5E068F0218843A968084338
:10104000E0602878C00752D06868022817D00328CB
:1010500018D02168012818D08905002959DAE168DB
:10106000890889000143E160FFF76CFE6968074663
:10107000022912D003291CD0012926D033E021688F
:101080008903EAE721688901E7E74907E5E7FFF710
:1010900059FEC11B3348814223D8E0680007800F06
:1010A0000228F4D123E0FFF74DFEC11B2D488142F9
:1010B00017D8E0680007800F0328F4D117E0FFF786
:1010C00041FEC11B274881420BD8E0680007800F12
:1010D0000128F4D10BE0FFF735FEC11B2148814206
:1010E00001D90320F8BDE0680007800FF3D11B4849
:1010F0000168C907C90FB1420DD901684908490003
:1011000031430160006800E003E0C007C00FB04257
:1011100001D00120F8BD2878400706D5E0680721F6
:1011200009028843E9680843E0602878000707D58A
:10113000E0680721C90288432969C9000843E060C3
:1011400000F060F8E168084A0906090F515CC840E0
:10115000064908600020FFF717FEF8BD0020024096
:101160000010024088130000A44000084C0000203A
:10117000034801680122D204114301607047000056
:101180000010024010B50F2202600C4AD3689B0782
:101190009B0F4360D368F02423408360D468072307
:1011A0001B021C40C460D268D2081A400261044885
:1011B0000068C007C00F086010BD000000100240AA
:1011C00000200240044805490068C968044A4905EE
:1011D000490F515CC84070474C000020001002408D
:1011E000BD400008044805490068C968044A8904EC
:1011F000490F515CC84070474C000020001002406D
:10120000BD40000810B5184AD1680C2008400428D9
:101210000BD0082810D00C2810D050680004410FC3
:101220000120C003491C884010BD1068C00601D5CC
:101230000E4810BD0E4810BD0E4810BD88020E4B62
:10124000000F185C0902D368890F491CDB0301D524
:10125000084A05E01268D20601D5044A00E0044AB3
:101260005043FEF745FF10BD0010024000093D004D
:101270000024F40000127A00B440000810B5044CB9
:101280006069C00503D5FFF7BBFEA015A06110BDC6
:1012900000100240FEB505007ED0FE4CE7680C2031
:1012A000E66807400120000406402878C00747D0C0
:1012B000082F05D00C2F0AD101200004864206D148
:1012C000206880033CD568680028E5D038E001201C
:1012D00069680004814203D121680143216011E063
:1012E000052301221B0492049942216802D1114373
:1012F0002160F1E78143216021680140009120686D
:1013000090432060686800280DD0FFF71BFD009017
:1013100005E0FFF717FD0099401A64287AD8206885
:101320008003F6D50CE0FFF70DFD009005E0FFF718
:1013300009FD0099401A6428F0D820688003F6D48B
:101340002878800755D50923E868042F0DD00C2F85
:1013500001D1002E09D000283BD0216899430143D8
:101360002160FFF7EFFC064627E02168490701D519
:10137000002891D061681F22120291432A6912024B
:10138000114361602168994301432160FFF73AFFEF
:10139000E16809060A0F00E079E1BF49895CC840AD
:1013A000BE4908600020FFF7EFFC002872D120E062
:1013B000FFF7C8FC801B0228B0D820684007F7D58B
:1013C00060681F2109028843296909020843606097
:1013D0000FE02068400840002060FFF7B3FC06469D
:1013E00004E0FFF7AFFC801B022897D82068400775
:1013F000F7D42878C0065FD5002F0CD0A869002844
:1014000049D02068FF21013108432060FFF79AFC92
:1014100006462DE0C0E02068800502D5A8690028B6
:10142000A7D06068072149038843296A08436060A0
:101430006068297F0002000A090608436060286A84
:10144000410B0120C003491C8840E16809060A0FCE
:101450009149895CC840914908600020FFF794FCDD
:10146000002817D128E0FFF76DFC801B0228A3D8C5
:1014700020688005F7D56068072149038843296AF9
:10148000084360606068297F0002000A090608437B
:10149000606011E0E1E02168FF20013081432160BC
:1014A000FFF750FC064604E0FFF74CFC801B0228C7
:1014B00072D820688005F7D42878794E000724D5A3
:1014C00068690028306910D0012108433061FFF7B6
:1014D00039FC009005E0FFF735FC0099401A02281E
:1014E0005AD830698007F6D50FE0400840003061D7
:1014F000FFF728FC009005E0FFF724FC0099401A54
:10150000022849D830698007F6D42878400765D585
:1015100000200290A06BC00006D4A06B0121090737
:101520000843A063012002905E480168C90511D4F8
:101530000168821511430160FFF704FC009005E08B
:10154000FFF700FC0099401A642825D85548006828
:10155000C005F5D5FF20AA680130824203D1316968
:101560000143316111E001218902002A07D00523DE
:101570001B029A4203D132690A433261EFE73269B2
:1015800082433261306988433061A86800280FD0F7
:10159000FFF7D8FB009007E05EE0FFF7D3FB009970
:1015A000411A4148814257D830698005F5D50DE090
:1015B000FFF7C8FB009006E0FFF7C4FB0099411A53
:1015C0003948814248D830698005F5D4029800280E
:1015D00004D0A06B012109078843A063686A002832
:1015E00064D00C2F3ED0012636060228206805D094
:1015F000B0432060FFF7A6FB05462FE0B043206014
:10160000FFF7A0FB074604E0FFF79CFBC01B022886
:1016100022D820688001F7D4E96AA86AE268084302
:10162000296BFD231B049A4311430843E0602068A3
:1016300030432060FFF786FB054604E0FFF782FB9E
:10164000401B022808D820688001F7D52EE0FFF75C
:1016500079FB401B022801D90320FEBD20688001D0
:10166000F5D423E00128F8D0E06801210904AA6A32
:10167000014091420BD10F218904EA6A0140914255
:1016800005D1032189050840296B88420ED001202D
:10169000FEBD000000100240A44000084C000020E5
:1016A0004010024000700040881300000020EFE767
:1016B0007047000010B504460068C068400509D5B1
:1016C0002046FFF7F5FF2068C16880221140054AD7
:1016D0008918C160012004490005486101202034B7
:1016E000607010BD7FFBFFFF0004014070B5040077
:1016F00012D002212046403005464174206801681E
:10170000402291430160204600F048F800216165C5
:1017100069742974084670BD012070BD70B504005D
:1017200007D0002625464035A662687C002802D0F6
:1017300005E0012070BD2E74204600F043F8022021
:10174000687420680168402291430160A168606864
:1017500022690843E1681143084361690122084393
:10176000A169520211400843E1690843216A084314
:10177000A16A084321680860A0690421000C0840A0
:10178000616A0843216848602068C16992009143FA
:10179000C161666501206874002070BD10B50068E5
:1017A0000649884209D10648416B8214914341633E
:1017B0000520E0210007FFF7C1F810BD003001400F
:1017C0000010024010B586B0044614216846FEF7AA
:1017D000DCFC10492068884219D10F48416B821403
:1017E00011434163C16A01221143C162C06A0021F1
:1017F00010400590E020009002200190032003900B
:1018000002910491052069460007FFF7CFF906B061
:1018100010BD00000030014000100240FFB504463A
:1018200083B0012001900020264640360090307C95
:101830000C9F1D4601280FD001203074FFF782FA5B
:101840000290707C616801280DD0CA1FFD3A08D152
:10185000A168002905D102E0022007B0F0BD0428EC
:1018600001D00220C3E00498002828D00598002861
:1018700025D0002D23D0707C042801D00520707461
:10188000002060650599A163E587A5870499216318
:10189000E586A5862064606420680168490603D453
:1018A00001684022114301600121E068C9028842B9
:1018B000606848D1002804D0012D02D03CE001200E
:1018C00095E0206B21680088C860206B801C206335
:1018D000E08E401EE0862FE020688168890710D5E1
:1018E000E18E00290DD0019901290AD1216B0988C7
:1018F000C160206B801C2063E08E401EE0860020CB
:10190000019020688168C9070DD0E18F00290AD0B5
:10191000C068A16B0880A06B801CA063E08F401E94
:10192000E08701200190FFF70DFA01460298081A9E
:10193000B84201D3781C59D1E08E0028CCD1E08F79
:101940000028C9D146E0002801D0012D3CD1206BF0
:10195000216800780873206B401C2063E08E401ED5
:10196000E08631E020688168890710D5E18E002982
:101970000DD0019901290AD1216B09780173206BDF
:10198000401C2063E08E401EE0860020019020680D
:101990008168C9070DD0E18F00290AD0C068A16B0A
:1019A0000870A06B401CA063E08F401EE087012000
:1019B0000190FFF7C7F90299401AB84202D3781C88
:1019C00002D013E0002F11D0E08E0028CAD1E08FA2
:1019D0000028C7D139462046029A00F0FBFC0028B7
:1019E00007D0012000902020606509E003200090CE
:1019F00006E0A068002803D12068C16880680190D3
:101A00000120707400203074009826E770B504003F
:101A100005D025462035687E002802D006E001204A
:101A200070BD00202876204600F00AF80220687673
:101A3000211D206800F0EAFF01206876002070BDBB
:101A400070470268D36801210B43D3600068826845
:101A50005207520F062A02D002680A430260002091
:101A60007047704770B50446006801690025C94396
:101A70008907002915DBC168C943890711D4E91E0C
:101A8000016101202076206880698007204602D00D
:101A9000FFF7E7FF04E000F078F8204600F076F862
:101AA000257620680169C943490717D4C168C9432D
:101AB000490713D40421C94301610220207620681C
:101AC00080698005800F204602D0FFF7CAFF04E03E
:101AD00000F05BF8204600F059F82576206801698F
:101AE000C943090716D4C168C943090712D408219C
:101AF000C9430161042020762068C0698007204620
:101B000002D0FFF7AEFF04E000F03FF8204600F0FF
:101B10003DF8257620680169C943C90617D4C16814
:101B2000C943C90613D41021C94301610820207696
:101B30002068C0698005800F204602D0FFF791FF22
:101B400004E000F022F8204600F020F82576206816
:101B50000169C943C90708D1C168C943C90704D18C
:101B6000891E0161204600F013F820680169C9430D
:101B7000490609D4C168C943490605D44021C9436F
:101B80000161204600F02CF870BD704770470000DE
:101B900010B5006801218907884201D1FFF7D8F804
:101BA0000B4A002113780B48012B03D10A4B1B78F9
:101BB000012B02D01170016010BD0368074C5B1C43
:101BC0000360A342F8D91170016002F0DFF910BD83
:101BD00004000020400000203C000020E0930400AE
:101BE000704770B5040017D0242060672068016832
:101BF00049084900016020680025056020684560AB
:101C000020688560204600F03FF8E5676567A567B6
:101C100060342574002070BD012070BD10B5040033
:101C200003D0606F002802D007E0012010BD002122
:101C300070200155204600F03DF8242060672068A0
:101C40000168490849000160204600F0A1FF012811
:101C5000ECD0606A002802D0204600F003FF206824
:101C600041680922D20291434160206881682A229A
:101C70009143816020680168012211430160204680
:101C800000F056FF10BD000010B5006806498842FC
:101C900009D10648416B0122920391434163C0215F
:101CA0000348FEF74BFE10BD003801400010024013
:101CB0000004005010B586B0044614216846FEF7B3
:101CC00064FA0F492068884218D10E48416B0122FE
:101CD000920311434163C26A02210A43C262C06A8D
:101CE000019108400590C02000900021032002913E
:101CF0000491039069460448FEF758FF06B010BDF2
:101D0000003801400010024000040050FFB50446B6
:101D1000406F83B017460D4620285CD1002D0AD0B5
:101D2000002F08D0A168C001814207D12069002896
:101D300004D1E80702D0012007B0F0BD2046603092
:101D40000290007C012846D00298012101740020F5
:101D5000E06721206067FEF7F5FF264640360190D8
:101D6000378277820120A1680003814202D1206975
:101D7000002802D02F46002511E000270FE00022A6
:101D80008021204601F018F8002815D1002F15D029
:101D90002168387888627F1C708A401E7082708A41
:101DA000019B002806980090E9D10022402120469E
:101DB00001F002F8002808D00320BDE72888216838
:101DC000C005C00D8862AD1CE6E72020606702995F
:101DD00000200874B0E70220AEE7FEE770B50124EA
:101DE0000E4D6402002221462846FEF7A4FF00F0B3
:101DF00017F80122160231462846FEF79CFF00F034
:101E00000FF8002231462846FEF795FF00F008F84B
:101E1000012221462846FEF78EFF70BD00040050C7
:101E20000020401CC0B20528FBD3704770B50C4C95
:101E3000012251022046FEF77EFFFFF7F1FF01224B
:101E4000150229462046FEF776FFFFF7E9FF00223C
:101E500029462046FEF76FFFFFF7E2FF70BD000046
:101E600000040050F8B50024FF27114E2546013725
:101E70006006040E012239463046FEF75CFFFFF78C
:101E8000CFFF012149023046FEF74CFF002801D068
:101E9000641CE4B2002239463046FEF74CFFFFF7DF
:101EA000BFFF6D1CEDB2082DE2D32046F8BD000047
:101EB00000040050F8B50024FF27154E05460137F1
:101EC000280601D5012200E0002201214902304606
:101ED000FEF731FFFFF7A4FF012239463046FEF737
:101EE0002AFFFFF79DFF002239463046FEF723FF09
:101EF000072C04D1012251023046FEF71CFF680670
:101F0000050EFFF78DFF641CE4B2082CD8D3F8BD92
:101F10000004005070B501220E4D5402214628469F
:101F2000FEF709FF0122160231462846FEF703FF9D
:101F3000FFF776FF002221462846FEF7FCFEFFF75A
:101F40006FFF002231462846FEF7F5FEFFF768FFD7
:101F500070BD00000004005070B50124094D6402FA
:101F6000002221462846FEF7E6FE012211022846FD
:101F7000FEF7E1FEFFF754FF012221462846FEF757
:101F8000DAFE70BD0004005070B50122104D5402FD
:101F900021462846FEF7CFFEFFF742FF0122160238
:101FA00031462846FEF7C7FEFFF73AFF214628468E
:101FB000FEF7B8FE002801D0012400E00024002232
:101FC00031462846FEF7B7FEFFF72AFF204670BDD0
:101FD0000004005070B5204E0446012228213046EE
:101FE000FEF7A9FE002208213046FEF7A4FE0520D8
:101FF000FEF796FCE007C00F002500280ED0012256
:1020000008213046FEF797FE3C2001F041FB0022FC
:1020100008213046FEF78FFE14200DE00122082132
:102020003046FEF788FE142001F032FB0022082122
:102030003046FEF780FE3C2001F02AFB6408E007F2
:102040006D1CC00FEDB2082DD7D3012208213046F8
:10205000FEF771FE70BD00000004005070B5294D00
:102060002949286840182949884237D22879000927
:1020700000012871902831D80107254C090F0DD196
:102080000011030000F0F1FE0A3A38363432302EE7
:102090002C08060A1F4800E01F48206068790009E4
:1020A0000001014660396871612917D201090220D7
:1020B000491E8840FEF732F92168FEF778F8606023
:1020C000A8790E210840A871801E072806D2072093
:1020D00028560F2802DCE87A7F2811D9002070BD2D
:1020E0000E48DAE70E48D8E70E48D6E70E48D4E7A0
:1020F0000E48D2E70E48D0E70E48CEE70E48CCE7B0
:10210000012070BD5800002080B85EE681CE341DED
:10211000500000200000FA4300007A430000FA4219
:1021200000007A42D7A326420000FA41D7A3A64175
:1021300085EB79415C8F264185EBF9401CB5002188
:1021400018480091164A01910260C1638160032220
:10215000012481639207046142600246C16020321B
:102160001170FF235170C2334362816211730163A6
:102170008161042241634261C161FEF7C5FA002812
:1021800001D0FEF775FA0120000301906946009422
:102190000448FEF76FFA002801D0FEF769FA1CBD6B
:1021A00000240140DC000020F0B587B0142168460F
:1021B000FDF7EBFF4148C26A04210A43C262C26ACA
:1021C0000A400592C26A80210A43C262C26A0A407A
:1021D0000592C16A01252943C162C16A294005915E
:1021E000C26A02210A43C262C06A2A4608400590B8
:1021F000052010210007FEF79EFD324F01223049D5
:102200003846FEF798FDE121012209023846FEF723
:1022100092FD6803002400900194694602942A48C4
:10222000FEF7C4FC03208003032600906946019654
:1022300002942548FEF7BAFC0E200090052069465E
:10224000019602940007FEF7B1FC102000900520D3
:1022500001956946029503940007FEF7A7FC0095D7
:1022600002946946384601950394FEF79FFC17488F
:1022700000906946019602943846FEF797FC144890
:10228000009001956946029503943846FEF78EFC4E
:102290001F20000200900F4801900520694602951A
:1022A0000007FEF783FCE8030090052001946946CF
:1022B00002940007FEF77AFC07B0F0BD0010024060
:1022C000291000000004005000080050160E000005
:1022D00028F100000000211010B500220121022089
:1022E000FEF7A0FD0220FEF793FD00220221072049
:1022F000FEF798FD0720FEF78BFD10BD10B50E48C8
:102300000C490160FF210531416000218160C160FD
:1023100001614161C1610122016252024162826137
:1023200081620721C162FFF7F9F9002801D0FEF7A9
:102330009FF910BD003001405C01002010B50C4831
:102340000A490160E1214902416000218160C160C8
:1023500001618161C1610C22016242614162FFF74A
:102360005DFC002801D0FEF783F910BD0038014064
:10237000B401002010B5FEF781FF10BD8307FF22D6
:10238000DB0E9A408907090E994000280BDA0007F6
:10239000000F0838830808489B001818C369934346
:1023A0000B43C3617047830804489B001B181868DF
:1023B000904308431860704700ED00E000E400E03F
:1023C0007047000010B50248FFF774F910BD000017
:1023D0003801002038B504464068FF230533202526
:1023E000984204D100920B460022802107E0512040
:1023F000005D05280DD100920B46002201212046E8
:1024000000F009F8002804D0606D284360650320BF
:1024100038BD002038BDF8B51D4617460E460446A7
:1024200009E0681C07D0FEF78DFC0699401AA84207
:102430000BD2002D09D020688168304688432ED009
:102440000020B842EDD10020F8BD20684168E022AC
:10245000914341606068C11FFD390CD10121A06822
:10246000C903884202D04911884204D1206801681A
:102470004022914301600120A16A4003814207D1BB
:1024800021680A6882430A6021680A6802430A6078
:10249000012040346074002020740320F8BD012026
:1024A000CFE7704710B5002804D0002000F01AF9DB
:1024B000012003E0012000F015F9002000F0DEF912
:1024C00010BD000010B5012149030248FEF72AFCA7
:1024D00010BD000000080050FEB5234823490068E5
:1024E000234A4118914201D30120FEBDFDF722FF8E
:1024F0000022204BFDF79AFEFDF72AFF044600203C
:10250000694608700871087200F086F9260CF1B26D
:10251000062000F0E7F9250AE9B2072000F0E2F909
:10252000E1B2082000F0DEF96946062000F0DBF891
:1025300001A9072000F0D7F802A9082000F0D3F87D
:1025400069460978F0B2884209D169460979E8B24A
:10255000884204D16946097AE0B2884201D002205B
:10256000FEBD0020FEBD00005800002080B85EE6E1
:1025700081CE341D80844E407CB5FFF76FFD00286E
:102580001ED000F0E5F80021012000F0ABF9802119
:10259000012000F0A7F98121012000F0A3F9002516
:1025A000684605709121242000F09CF9694624209A
:1025B00000F099F868460078912803D002207CBD8D
:1025C00001207CBD4021412000F08CF923210C200A
:1025D00000F088F9FFF780FF00F056F806210A2086
:1025E00000F080F93B210B2000F07CF9214C2220E7
:1025F000E17A00F077F92179A0790143A07A0128E6
:1026000001D0012000E0002001431D2000F06AF904
:10261000607A6179012808D0002001431E2000F073
:1026200061F96079602802D013E00420F5E768467C
:10263000057101A9312000F056F868460079C108FB
:10264000C9003120491D00F04DF90C21372000F060
:1026500049F90848832108384068C905884201DDE6
:10266000082100E0002104200143262000F03AF96F
:1026700000207CBD58000020024610B50520102126
:102680000007FEF758FB10BD38B5154C0720205643
:102690000F2801DD012038BD00F0BEF8E079F025FB
:1026A0002843C1B2092000F01DF9002168460170DD
:1026B0006946092000F017F807216156684600783E
:1026C0002943814201D0022038BD207A012805D05B
:1026D00084214D2000F006F9002038BD8721F8E75D
:1026E00058000020704710B5012200F001F810BD1D
:1026F00070B5044615460E460020FFF7BDFF600684
:10270000400E00F015F8002405E0002000F010F85D
:102710003055641CE4B2AC42F7D30120FFF7ACFFA4
:1027200070BD0A4610B501460020FFF7E1FF10BD5D
:1027300001B582B07D20C0000090012301AA02A94A
:102740000248FFF76BF8684600790EBD5C01002077
:1027500010B5094C002201212046FEF7ECFAC820F2
:10276000FEF7DEF8012211462046FEF7E4FAC82003
:10277000FEF7D6F810BD0000000400507CB50546F9
:1027800001A91920FFF7AFFF684601791B4C080625
:1027900007D5C843401C0006800E694608714042B8
:1027A00002E088086946087160811A20FFF79BFFE4
:1027B0000A20205E002803DA69460978081A05E035
:1027C000684600780F210001FDF792FCA4382081B3
:1027D0000B4CA07A012808D121460B311320FFF7BA
:1027E00082FF00210D2000F07DF8E17A2846FFF7F6
:1027F00098FFFF21122000F075F87CBD70020020C8
:102800005800002010B58121012000F06BF88021D4
:10281000012000F067F810BD10B58121012000F003
:1028200061F810BD10B58121012000F05BF8002196
:10283000202000F057F80A21212000F053F80E481C
:10284000C17A222000F04EF80020FFF72BFE002175
:102850000D2000F047F8FF21122000F043F8BF21BF
:10286000112000F03FF80021402000F03BF88521C6
:10287000012000F037F810BD58000020704700001C
:1028800070B504468121012000F02CF800212020A1
:1028900000F028F80A21212000F024F8104D222011
:1028A000E97A00F01FF80120FFF7FCFD80210D20E0
:1028B00000F018F8EA7A2146002000F019F8FF210C
:1028C000122000F00FF8F721112000F00BF8402142
:1028D000084600F007F88321012000F003F870BDDE
:1028E0005800002013B5012201A900F001F81CBD19
:1028F00070B5044615460E460020FFF7BDFE204683
:1029000080210843FFF714FF002404E0305DFFF747
:102910000FFF641CE4B2AC42F8D30120FFF7ACFE19
:1029200070BD704710B59AB034216846FDF72DFC94
:1029300014210DA8FDF729FC1C2112A8FDF725FC88
:10294000184801680322D2029143C2148918016019
:102950000920009001215001059101900A90C001C9
:10296000022100240C900B9409916846FEF792FC1A
:102970000F200D9003200E9080200F9010940021C6
:1029800011940DA8FEF73EFB212012900120400477
:102990001390149412A8FEF781FAFEF7E9FB1AB01F
:1029A00010BD0000007000401048016882151143FE
:1029B0000160C1680E4A1140C16001680D4A1140B2
:1029C0000160816849084900816001680122920420
:1029D00091430160C168FD2212049143C16000214E
:1029E00001610549C0038860704700000010024083
:1029F0000C40FF88F6FFF6FE00ED00E010B502483F
:102A0000FFF730F810BD00003402002070B50268F6
:102A100001239B07114C124D984203D0A04201D0D4
:102A2000A84203D17026B2434E683243984203D085
:102A3000A04201D0A84204D103231B029A43CB68D1
:102A40001A4380239A430B691A4302608A68C26260
:102A5000096881620121416170BD000000080140E8
:102A60000014014010B5818CC90707D001684A687D
:102A700001235B049A43836A1A434A60818C890765
:102A800007D501684A6801231B049A43C36A1A43A5
:102A90004A60818C490707D501684A6801239B0475
:102AA0009A43036B1A434A60818C090707D5016872
:102AB0004A680123DB039A43436B1A434A60818CC3
:102AC000C90607D50268916801231B039943836BEC
:102AD00019439160818C890607D501688A680123B2
:102AE0005B039A43C36B1A438A60818C490612D5F3
:102AF00003685A6801210905046C8A4322435A601D
:102B0000026C8A4207D10268516803235B0599432E
:102B1000436C19435160818C090607D501684A68E6
:102B20000123DB04806C9A4302434A6010BD00001D
:102B3000F8B500260446C667FEF704F90546206886
:102B40000068124F000709D501212B4600224905D4
:102B50002046009700F030F900280DD12068006869
:102B600040070BD501212B460022890520460097FE
:102B700000F022F9002801D00320F8BD2020606772
:102B8000A067603426740020F8BD0000FFFFFF013D
:102B9000F8B504462669A268E769324366691020E1
:102BA00000253E432368324378491E68784F3E40F3
:102BB00016431E6023685A6803263603B243E6684C
:102BC00032435A602368A2698B4201D0266A32439D
:102BD0009E680B273F02BE4316439E606D4E2368DE
:102BE0006D4AB3420CD1D2689207920F06D0012AE7
:102BF00038D0022A34D0032A20D11EE001201DE063
:102C0000664EB3420AD1D2680C26324026D0042A3E
:102C100028D0082A24D00C2A10D10EE08B420DD1E6
:102C2000D66803229202164018D001229202B61AE8
:102C300018D0B61A14D0964200D10820564A012660
:102C4000403A574FF6038B4236D100280CD0022869
:102C50000DD0042812D008281FD11CE00020EDE779
:102C60000220EBE70420E9E7FEF7ACFA08E0106881
:102C7000C00601D5384605E04A4803E0FEF7C2FA2F
:102C8000002873D0626851005118814205D81103A1
:102C9000814202D303E03046F4E7012566E0010EED
:102CA00006025008002330185941FDF737FA032176
:102CB0000902411A3C4A55E0E169B14232D10300B0
:102CC00000F0D3F809070A0D06250606062B0600B4
:102CD000E3E7FEF777FA1CE0FEF784FA19E01068E4
:102CE0006168C00602D54808304A01E0304A480809
:102CF0008018FDF7FDF980B201462E4A1039914245
:102D0000CBD8511C01400007400F08432CE0FEF7D0
:102D100079FA616840004A08EAE7616801224808D8
:102D20001204E5E7030000F0A0F809070A0D0626E3
:102D30000606062C0600B0E7FEF744FA1DE0FEF793
:102D400051FA1AE010686168C00602D54808C01937
:102D500002E014484A081018FDF7CAF980B201468B
:102D6000144A1039914298D82168C8600020206622
:102D700060662846F8BDFEF745FA61684A08801883
:102D8000EAE7616848088019E6E70000004800406B
:102D9000F369FFEF0038014040100240004400405A
:102DA00000093D000024F400FFFC0F0000127A002F
:102DB0000048E801EFFF0000FFB581B017460E465E
:102DC00004460A9D09E0681C07D0FDF7BBFF049983
:102DD000401AA8420CD8002D0AD02068C16930469C
:102DE000884318D00020B842EDD0002005B0F0BDD7
:102DF00020680168FF22A132914301602068816848
:102E000049084900816020206067A0670020603485
:102E100020740320EAE70120E5E700000FB410B5B5
:102E200003A9044B044A029800F03CF810BC08BC0B
:102E300004B018476D3B0008680000202021020CF8
:102E400001D010211046020A01D0104608390209AB
:102E500001D01046091F820801D01046891E420881
:102E600001D0881E7047081A704730B47446641E3B
:102E70002578641CAB4200D21D46635D5B00E318FD
:102E800030BC184702E008C8121F08C1002AFAD156
:102E900070477047002001E001C1121F002AFBD1DA
:102EA00070470000FFB591B00F460546002606E0CA
:102EB00025280AD0149A139990476D1C761C2878FF
:102EC0000028F5D1304615B0F0BD00240094012152
:102ED000F34A029400E004436D1C2B780846203B23
:102EE00098401042F7D128782A280ED0022128785D
:102EF0000246303A092A15D8009A0A235A43303A32
:102F000080180C436D1C0090F1E701CF0090002861
:102F100005DA01204003044300984042009002205B
:102F200004436D1C28782E2815D1042004436878AA
:102F30006D1C2A280AD101CF6D1C02900BE002996A
:102F40000A225143303940186D1C029028780146FE
:102F500030390929F3D928786C2810D006DC4C28A0
:102F60001AD068280ED06A2817D104E0742813D02C
:102F70007A2812D110E00120400504430CE0012121
:102F8000090501E0032109050C436978814203D159
:102F90000120000524186D1C6D1C287803906E28F4
:102FA0001ED00CDC632831D004DC00288AD05828DD
:102FB00011D1B2E064287BD069280CD178E0732865
:102FC0002DD004DC6F2870D0702804D1A7E07528BC
:102FD0006CD078286BD0149A13999047761C62E0D5
:102FE0006002400F022807D003280AD0042838685E
:102FF0000AD006603F1D56E03868F1170660416050
:10300000F8E738680680F5E70670F3E73878694630
:1030100008740020487404A80390012003E0386875
:1030200003900020C0433F1D61070FD5002101E040
:103030000199491C029A0191914213DA8142F7DB0E
:10304000019A0399895C0029F2D10BE0002101E08B
:103050000199491C01918142FADB019A0399895C2B
:103060000029F5D101990098139A401A0090214641
:10307000149B00F03BF901998019461807E003986A
:1030800003990078491C0391149A13999047019869
:10309000401E0190401CF2D12146149B139A0098C7
:1030A00000F014F986196D1C09E741E033E034E0C3
:1030B0000A200021049005916002410F022905D0E9
:1030C00001CFC2179446032905D007E0FF1DFF0872
:1030D000FF0003CF06E000B2C2179446042902D1D4
:1030E00040B2C1178C4600226146944506DA0A4672
:1030F0000021404291418C462D2102E0210504D55A
:103100002B216A461176012103E0E10701D020213D
:10311000F7E7019154E00A200BE0102009E01020AD
:10312000049000210420044308200591029003E04C
:1031300008200021059104906002410F022905D06A
:1031400001CF00229446032906D006E0FF1DFF08A8
:10315000FF0003CF8C4603E080B2042900D1C0B247
:103160000021019121072BD50399702906D0049ADB
:103170001021059B4A401A4305D00EE040216A46C3
:103180001176012108E06146014306D030216A46EC
:1031900011760399517602210191049A0821059B29
:1031A0004A401A430CD16146014301D1610707D55A
:1031B00030216A461176012101910299491E02913E
:1031C0000399582904D037A103910FA90F910DE05D
:1031D00039A1F9E76146059B049AFCF79FFF039B21
:1031E0008C469B5C0F9A521E0F92137061460143EE
:1031F000F0D10F9807A9081A20300390600704D572
:10320000012000048443029801E001200290039908
:10321000884201DD401A00E0002041180290019828
:1032200009180098401A0090E00306D42146149B28
:10323000139A009800F05AF886190020049008E0CC
:1032400006A9085C149A139990470498401C761CB0
:10325000049001998842F3DBE0030CD52146149BCE
:10326000139A009800F042F8861904E0149A30206E
:1032700013999047761C0299481E02900029F5DCAC
:1032800008E00F980F990078491C0F91149A139930
:103290009047761C0399481E03900029F1DCFBE659
:1032A000092801003031323334353637383961621C
:1032B00063646566000000003031323334353637E0
:1032C000383941424344454600000000F8B5044601
:1032D00000251E461746880404D405E03946202000
:1032E000B0476D1C641EF9D52846F8BDFFB50446ED
:1032F000002581B01E46C80301D5302700E02027F5
:10330000880404D505E038460399B0476D1C641E57
:10331000F9D5284605B0F0BD70B5144804250168FC
:1033200013480160702101719021417185710F2155
:10333000C17101210172417281720A21C172FFF7CC
:103340001BF9044601460BA0FFF768FD002C08D0CE
:10335000FF24F5340AA0FFF761FD2046FDF7E0FAEF
:10336000F8E702481438C57370BD0000140000204F
:10337000580000206173746174653D25640D0A0076
:103380006C6F726120696E6974206661696C0D0AE8
:103390000000000000B587B014216846FCF7F5FE78
:1033A0000B48C26A01210A43C262C06A0291084006
:1033B00005901F20000200900648019005206946F4
:1033C0000007FDF7F3FBFEF787FF07B000BD000025
:1033D000001002400000211070B5012200241146A7
:1033E0000748FDF7BDF8002808D0054D05A029784D
:1033F000FFF714FD2878AA2800D10124204670BDCB
:1034000000000020666163746F72795F70617261A1
:103410006D657465725F666C61673D2564000000D0
:1034200070B50024234800F0AFFB01282CD1FF2009
:10343000F530FDF775FA00221F4C1E4B1146104661
:103440001D5C265CB54201D1521CD2B2401CC0B2F8
:103450000628F5D3184C00200A341D5C265CB542C2
:1034600001D1491CC9B2401CC0B20628F5D37D2445
:10347000E400062A0AD0062910D00D20FEF7AAFD86
:103480002046FDF74DFA0024204670BD0E20FEF7C1
:10349000A1FD2046FDF744FA0124F5E707A0FFF758
:1034A000BDFC0E20FEF796FD2046FDF739FA0224FA
:1034B000EAE70000D0000020280000207869616F52
:1034C0006A696E676368656E6700000070B5224EBA
:1034D000B079012801D100F0BDFCF079012801D1BB
:1034E00000F0E6FA1D4D2878002833D0002401288A
:1034F00006D12C701AA0FFF791FCFDF797FCB47170
:103500002878022826D12C7017A0FFF787FCFFF738
:1035100083F90120104BB0709B1C01461846132202
:103520000E3000F077FC12497070C8721148FFF736
:10353000A7F90F20FEF74EFD0122D1030E48FDF73B
:10354000FAFB7D20C000FDF7EBF97472B471F471E1
:1035500000F01CFD70BD00000000002044000020B1
:10356000313233343500000038383838000000007C
:10357000580000206C00002000040050F8B5414FB6
:103580000024F87A2546012820D002281BD00428E0
:1035900017D1FCF7E1FF012813D168460570694691
:1035A0001220FFF7A0F8FF211220FFF79BF96846D1
:1035B0000078010701D5022002E0400601D5012074
:1035C000F8722046F8BDFFF727F956E02E49132080
:1035D000FFF789F82D48FFF7D1F8FFF71DF92B4ABF
:1035E00010785A2849D15078A52846D11079012859
:1035F00043D1254E50790B3E012806D002281FD01A
:10360000062831D0072838D124E01E490020103187
:103610001446221892790A54401CC0B20228F8D3EA
:10362000184802221E211030FCF7D0FF0020F17A4A
:1036300002E02554401CC0B28142FAD801241CE0AB
:103640000020F17A02E01554401CC0B28142FAD841
:10365000022412E00020F17A02E01554401CC0B2AE
:103660008142FAD8032408E00020F17A02E01554E0
:10367000401CC0B28142FAD80424FFF7D3F80420DA
:103680009EE7000000000020630000209E00002054
:10369000C100411806484161012101610021816199
:1036A0000269D30701D0D203FAD501618161704765
:1036B00000E000E0F8B50020C34C0090A07B7D2521
:1036C0000126C24FED000300FFF7CFFB130B2526A9
:1036D000345D68859F25A8C125D0E5FBF9F8F7F68C
:1036E0002500FFF779FE012804D0B9A0FFF796FB6B
:1036F000022002E10D20A073B34806220A212830DF
:10370000FCF72EFFB048062214213230FCF728FFC8
:10371000B4A0FFF783FB54E10920FEF75BFC2846C9
:10372000FDF7FEF82846FDF7FBF8B34900200870C6
:103730000320E2E0A448E670283000F025FA0128D2
:10374000E9D10020A04FE07006462837BA5D314627
:10375000AAA0FFF763FB761CF6B2062EF6D3284626
:10376000FDF7DEF8984806220A212830FCF72EFFE4
:103770001320FEF72FFC2846FDF7D2F82846FDF768
:10378000CFF80420B9E00820FEF724FC2846FDF716
:10379000C7F82846FDF7C4F80520AEE08A48E67071
:1037A000323000F0F1F90128B5D10020E070284650
:1037B000FDF7B6F88448062214213230FCF706FFE4
:1037C0001120FEF707FC2846FDF7AAF82846FDF76A
:1037D000A7F8062091E08FA0FFF720FBFFF71CF869
:1037E000794B01229B1C1846A67011460E3000F042
:1037F00011FB607001468DA0FFF710FB6078F87236
:103800008E48FFF73DF8072077E0FFF7B7FE012865
:1038100096D18BA0FFF702FB09206EE08CA0FFF78A
:10382000FDFAFEF7F9FF32218448FCF7AEFC664B47
:10383000A6709B1C1846022201210E3000F0EAFA05
:103840006070F8727D48FFF71BF80A2055E0FFF71B
:1038500095FE0228A8D10620FEF7BCFB2846FDF7FE
:103860005FF82846FDF75CF80D2046E00A20FEF7D9
:10387000B1FB2846FDF754F82846FDF751F879A02A
:10388000FFF7CCFA55202070012211464E48FCF774
:103890009DFE112031E0FEF7BFFF4B4B072228337E
:1038A00018460121183800F0B5FA6070F8726348C4
:1038B000FEF7E6FF0E2020E077E020E018E006E0CB
:1038C000FFE7FFF75BFE03287BD10F2015E0FEF733
:1038D000A3FF3D4B0622323318460121223800F067
:1038E00099FA6070F8725548FEF7CAFF102004E09C
:1038F000FFF744FE042864D10C20A07361E04F4818
:10390000E670643000F040F901285AD12E490020B9
:10391000C8707D20C000FDF703F8002555A0FFF713
:103920007DFA464E00246436325D214657A0FFF7EB
:1039300075FA641CE4B2062CF6D3234F0024283712
:103940003A5D21462DA0FFF769FA641CE4B2062C0B
:10395000F6D30020315C3A5C914201D16D1CEDB28E
:10396000401CC0B20628F5D329464FA0FFF756FAEF
:10397000062D0BD00D20FEF72DFB7D24E400204604
:10398000FCF7CEFF2046FCF7CBFF1AE00E20FEF737
:1039900021FB7D24E4002046FCF7C2FF2046FCF713
:1039A000BFFF0948122181730BE00C20FEF712FBC8
:1039B0002846FCF7B5FF2846FCF7B2FF66710120E8
:1039C00000900098F8BD0000000000205800002082
:1039D000BDF8D0D0D3C3BBA7C3DCC2EBC9E8D6C304
:1039E0000D0A0000D3C3BBA7C3DCC2EBD2D1BEAD6E
:1039F000C9E8D6C30D0A0000640000207573657223
:103A00005F70617373776F72645B25645D3D2564DD
:103A100000000000C7EBC7F3BAF3CCA8B7D6C5E4E3
:103A2000C9E8B1B8BAC50D0A000000007061636B47
:103A30005F6C656E3D25640D0A0000006C0000207F
:103A4000B7D6C5E4C8EBCDF8B3C9B9A60D0A0000D6
:103A5000C9E8B1B8BAC5D2D1BEADC4C3B5BD0D0AAF
:103A600000000000B3F6B3A7C9E8D6C3CDEAB3C9D6
:103A70000D0A0000636865636B5F70617373776F35
:103A800072645F6E756D0D0A0000000075736572DB
:103A90005F74656D705F70617373776F72645B25BF
:103AA000645D3D2564000000623D25640000000067
:103AB00010B51F4CA07A00281CD0012827D002285E
:103AC00017D1FEF7A9FE0020A070A31C18460422FF
:103AD00001210E3000F09EF96070014615A0FFF73D
:103AE0009DF918496078C8721748FEF7C9FE012091
:103AF000A07210BD15A0FFF791F90920FEF76AFA30
:103B00007D24E4002046FCF70BFF20460CE013A0C8
:103B1000FFF784F90121C9031348FDF708F90420D0
:103B2000FEF758FAFF20F530FCF7FAFE10BD000052
:103B3000000000207061636B5F6C656E3D25640D55
:103B40000A000000580000206C000020B7C0B2F04E
:103B5000C6F4B6AFB1A8BEAF0D0A0000B7C0B2F050
:103B6000C9F9D2F40D0A00000004005013B5044B4B
:103B7000012269460348FEF7C9F800981CBD000001
:103B8000FFFF0000B401002070B50646002500F0DC
:103B9000C5F9184C012804D002280AD0032819D1ED
:103BA00010E00120FEF716FA207B401C2073012054
:103BB00006E0207B401C20730220FEF70BFA022057
:103BC000607307E003206073207B401C2073032098
:103BD000FEF700FA207B072803D23118627B2039D8
:103BE000CA77062803D10125002020736073284678
:103BF00070BD000000000020F8B5594CE07B0128A2
:103C000022D002281DD004281AD1FCF7A5FC0128D7
:103C100016D1214608311220FEF765FDFF21122042
:103C2000FEF760FE207A010703D50220E0734DA065
:103C300004E0400604D50120E0734EA0FFF7EEF843
:103C4000F8BDFEF7E9FD85E04D491320FEF74BFD79
:103C50004B4F0B3FF87AF8724A48FEF78FFDFEF79C
:103C6000DBFD0026474D06E0AA5D314646A0FFF782
:103C7000D5F8761CF6B2F87AB042F5D8384E47A09F
:103C8000103672783178FFF7C9F828785A2861D150
:103C900068782946A5285DD188783278904259D134
:103CA000C8787278904255D10879012852D1487964
:103CB00001250026ED0304280CD009283AD012284B
:103CC00002D0132846D10DE03AA0FFF7A7F8A6715D
:103CD00066723FE0012229463B48FDF72CF8E67169
:103CE000A67237E0FEF798FD01201D4BA0709B1CCB
:103CF0000146184613220E3000F08CF86070F872FE
:103D000020483238FEF7BCFD0F20FEF763F9012290
:103D100029462D48FDF70FF87D25ED002846FCF7D4
:103D2000FFFD2846FCF7FCFDA6716672267100F0C7
:103D30002DF90FE00A4A002032320B189B791354F8
:103D4000401CC0B20628F8D30548062214213230A0
:103D5000FCF73CFCFEF766FD0420E073F8BD0000B4
:103D60000000002073656E64207375636573730DC6
:103D70000A0000007278207375636573730D0A0082
:103D8000630000209E0000205258627566666572CE
:103D90005B25645D3D253032780D0A00B5B1C7B0B2
:103DA000C9E8B1B8B5D8D6B73A25642D25640D0A4F
:103DB00000000000BAF3CCA8CAD5B5BDB1A8BEAF0B
:103DC000D6B8C1EE0D0A000000040050FCF7C8FF91
:103DD000FEF7A8FDFEF7E8F9FEF7B0F9FEF7AEFA38
:103DE000FEF78CFAFEF778FAFFF796FAFFF762FC17
:103DF0000128FBD104A0FFF711F800F0C7F8FFF786
:103E0000FBFEFFF763FBFAE7BDF8C8EB736C656573
:103E100070000000F8B51F460D4C5A232370A523EF
:103E200063700378A3704078E07021710626627198
:103E3000002505E0785DA055761C6D1CF6B2EDB24C
:103E40003846FCF7ADF9A842F4D83046F8BD00007A
:103E50006C00002070B5214C21A0617AFEF7DEFFD6
:103E6000607A00280FD0012826D002280AD18103C9
:103E70001F48FCF75CFF0420FEF7ACF8FF20F5308C
:103E8000FCF74EFD70BDFEF7C7FC144B01259B1CD3
:103E90001846A570122229460E30FFF7BBFF60704E
:103EA000014614A0FEF7BAFF16496078C87216489A
:103EB000FEF7E6FC657270BD14A0FEF7AFFF0720A9
:103EC000FEF788F87D25ED002846FCF729FD2846F9
:103ED000FCF726FD0220607270BD0000000000208B
:103EE00072616E675F73746174653D2564000000E4
:103EF000000400507061636B5F6C656E3D25640D5E
:103F00000A000000580000206C000020D2BBBCFC5E
:103F1000C6F4B6AFB1A8BEAF0D0A00000848002134
:103F20000278012A06D0022A07D0032A01D10170A3
:103F30000320704701700120704701700220704714
:103F40006400002010B5FCF70BFFFEF7EBFC0C48FB
:103F5000FDF747FE0B48FDF7C9FB0121C9030A48DD
:103F6000FCF7ECFCFEF720F9FEF7E8F8FEF7E6F9BF
:103F7000FEF7C4F9FEF7B0F9FFF7CEF910BD000067
:103F8000B40100205C0100200004005010B5FEF7D1
:103F900039FC00F003F800F071F810BDF0B5344CB6
:103FA00087B0A06B21040843A063FCF755FFFCF722
:103FB0004BFFE0680127FF03B843E060E06A04219B
:103FC0000843E062E06A08400590E06A8021084307
:103FD000E062E06A08400590E06A01210843E0627F
:103FE000E06A08400590E06A02210843E062E06A66
:103FF0000097084003250026059069460296019522
:104000001C48FCF7D3FD10206A4661C205206946B2
:104010000007FCF7CBFD002228211648FCF78BFE99
:1040200015486A4661C269461248FCF7BFFDC020C8
:104030006A4661C269460F48FCF7B8FD052069462B
:104040000007009702960195FCF7B0FDE06A400872
:104050004000E062E16A02208143E162E06A0421FB
:104060008843E062E16A80208143E16207B0F0BDED
:1040700000100240000400502971000010B50749EB
:1040800001200870FFF786F90548816B020411438F
:10409000816301210846FCF7E7FE10BD3C000020CB
:1040A00000100240000000000000000001020304B4
:1040B00006070809030406080C1018203000000049
:1040C0000001020304000000E84000080000002096
:1040D0006C000000842E0008544100086C00002091
:1040E00014120000942E00080000000000000000E0
:1040F00000000004000000000000000080D60F1C3B
:1041000040FF7A1D80FB651E00A1BC33C0CA893602
:104110000102030102030000000001020302020287
:10412000000000000000000000000000000000008F
:1041300000000000000020000000FA436F12833FDF
:1041400080A1031C9080020F0101014000000000CB
:04415000000000006B
:04000005080000C12E
:00000001FF
