:020000040800F2
:1000000078120020D500000831250008471F00089D
:1000100000000000000000000000000000000000E0
:10002000000000000000000000000000972600080B
:1000300000000000000000007D250008172B0008CC
:10004000E7000008E7000008B9250008E7000008FD
:10005000E7000008E7000008E70000084506000880
:1000600000000000E7000008E7000008E7000008C3
:10007000E7000008E700000800000000F12B00087E
:1000800000000000E7000008000000000000000081
:10009000E700000800000000E7000008E700000893
:1000A000E7000008E7000008E7000008E700000894
:1000B000E7000008E7000008000000000000000062
:1000C0000348854600F024FA004800475D3E0008DA
:1000D000781200200448804704480047FEE7FEE706
:1000E000FEE7FEE7FEE7FEE79D2B0008C1000008E3
:1000F00030B50B46014600202022012409E00D46C0
:10010000D5409D4205D31D469540491B2546954047
:1001100040191546521E002DF1DC30BDF0B51FB45C
:100120000646002082B005464024019100901BE065
:10013000019922460F46304600F038F9049A059B93
:10014000801A994110D310461946224600F01EF934
:10015000361A8F410197224601200021009F00F0AE
:1001600015F938184D4100902046641E0028DFDC48
:10017000019B00982946324607B0F0BDD2B201E09B
:100180000270401C491EFBD270470022F6E710B5F2
:1001900013460A4604461946FFF7F0FF204610BDF5
:1001A000421C0178401C0029FBD1801A704770B5B1
:1001B00002464A40D50F40004A00ED074008520869
:1001C000002814D0002A12D0C40DD30D4102012002
:1001D000C0055202490A520AE41A091812187D345D
:1001E000914201D3641C00E04900002C01DA002098
:1001F00070BD0023914201D3891A0343400849008E
:100200000028F7D100290AD0914202D10121C90763
:1002100005E0914201D2012101E00121C943E0053D
:10022000C018401900F0D3F870BD0000F0B50C46BE
:100230005C4085B0E40FE40703944C00002664089A
:1002400059009446490802460296224321D062464C
:100250000A431ED06200570D4A000E032303550DBA
:10026000012402462C492405781B1B0B360B401831
:1002700023432643614600901C46501AB44103D3E1
:100280000098401C009002E0921800985B41002802
:1002900003DA0020014605B0F0BD00200121090568
:1002A0000746864611E064461D46141BB54106D339
:1002B0006546521BB341744607430C43A646CD071F
:1002C00040084908284392185B4105460D43EAD18E
:1002D0001046184313D060461946504071400843F9
:1002E00006D06046101AB34106D20122002306E070
:1002F00000220123DB0702E00122D24353100098C1
:1003000074460105381C6141029C039D0019694136
:1003100000F09EF8BFE70000FD030000C217C10F08
:10032000504010B54018CA079623002100F057F836
:1003300010BD00000EB505490291002100910A464A
:100340000B46019100F091F803B000BD33040000AA
:100350004A0009030123090B1B051943094B10B57A
:10036000520D9A4201DA002010BD064B34339A42F6
:1003700003DC9A1A00F01AF810BD0349511888409E
:1003800010BD0000FF030000CDFBFFFF10B5202AC9
:1003900004DB0146203A9140002010BD914020230B
:1003A0009C1A0346E3401943904010BD10B5202A23
:1003B00004DB0846203AD040002110BD0B46D34054
:1003C000D0402024A21A91400843194610BD0029AC
:1003D00004DA401C490001D140084000704770B465
:1003E0000024050C05D11024000402D1002921D0DD
:1003F0001124050E01D100020834050F01D10001BE
:10040000241D850F01D18000A41C002801DB4000C1
:10041000641C002908D020252E1B0D46F540A14064
:1004200000D001212943084301061B1B000ADB1DE4
:1004300002D5002070BC7047DB0518188018002911
:10044000F8DA401C4900F5D170BC40084000704704
:1004500010B5002B08DA0024401C614192185B4162
:100460001A4301D14008400010BDF0B51FB482B05E
:1004700005460C0003D0084602F0DAFD02E002F067
:10048000D7FD20300246009021462846FFF77EFF28
:10049000049B059A04460F4618431143084314D0A1
:1004A000184610431BD0009840210A1A1846059997
:1004B000FFF77CFF05460E46009A05990498FFF762
:1004C00065FF084305D0012004E02046394607B007
:1004D000F0BD0020C11705430E432C43374300995C
:1004E0000E986305401A7905E40A00220C43FD0AC0
:1004F0000A3002D500200146E9E7010510196941DB
:100500000C9C0D9D00196941FFF7A2FFDFE7000079
:10051000064C0125064E05E0E36807CC2B430C3C56
:1005200098471034B442F7D3FFF7CEFD404100089E
:100530006041000838B50446064805490068FFF7E1
:10054000D7FD604300E0401E00900028FBD138BD7D
:1005500040420F003800002010B502F0ADF810BD89
:10056000F8B515460C46064601F08AFDA02001F0BC
:1005700057FD01F0BFFD00280FD1E0B201F050FDA2
:1005800001F0B8FD002808D101F07AFDA12001F0AA
:1005900047FD01F0AFFD002803D001F093FD0020DE
:1005A000F8BD00246F1E0BE001F012FD3055BC4277
:1005B00002D001F0C9FC01E001F0EEFC641CA4B221
:1005C000AC42F1D301F07EFD0120F8BDF7B517462E
:1005D0000C46002530E0002D01D060071CD101F051
:1005E00071FD002601F04CFDA02001F019FD01F085
:1005F00081FD002805D0761C7D20B6B2C000864261
:10060000F0D37D20C00086420ED0E0B201F008FD9C
:1006100001F070FD002807D10098405D01F000FD59
:1006200001F068FD002803D001F04CFD0020FEBD64
:10063000641C6D1CA4B2ADB2BD42CCD301F042FD2E
:100640000120FEBD10B5FF20013000F083FA01202B
:10065000400200F07FFA0120800200F07BFA0120C6
:10066000C00200F077FA0120000300F073FA10BD19
:1006700070470000F8B506460D464036317C01292A
:100680000DD00121317401688A68520709D5416D86
:10069000202211434165002030740120F8BD022062
:1006A000F8BD174B6A68D80547109A42154C8A6AFC
:1006B0002B6812D05B035B0B1A438A6229684903DB
:1006C00005D5A1680143A1600A20FFF733FF286820
:1006D000800312D5A06838430EE05B035B0B9A439E
:1006E0008A622968490302D5A1688143A16028680C
:1006F000800302D5A068B843A06000203074F8BD24
:10070000011000000027014070B5040006D0606DA4
:10071000264600254036002802D006E0012070BDA4
:10072000A5653574204600F0D3F8606DC00603D48B
:1007300021688868400705D5606D10210843606511
:100740003574EBE7606DFF220132904302221043C3
:10075000606588688207920F5B48012A02D10A68A7
:10076000D2072BD1032362689B079A4205D05B42D4
:100770009A4202D05B009A4209D10A69920092081B
:100780000A6121680A6963681A430A610CE00A6910
:10079000920092080A6181680F229204914381605D
:1007A00081686268114381602168CA6818239A438E
:1007B000CA602168CA68A3681A43CA6081680122B6
:1007C0005206914381608168A28E52061143816076
:1007D00020688168C90004D481680122120711438E
:1007E00081602068C168394A1140C1602069E168B0
:1007F000022825D000200143204620300278037BC8
:1008000052035B001A431143226B1143A269920306
:100810001143E269D20311432268D3681943D160BE
:10082000616A0A46FF3AC23A05D0A26A11432268B9
:10083000D3681943D16042780121012A02D00BE02C
:100840000420D8E70078002823D0606D20221043D0
:100850006065A06D0843A065E06B012820681FD08B
:100860000169C90703D0016949084900016120688D
:100870004169C908C900416120684169A26B1143FF
:100880004161A565606D80088000401C60650020A6
:1008900070BD2068C26801231B041A43C260DBE7F5
:1008A0000269FF239B009A43026120680269236C5E
:1008B000A66C1A43636C33431A43026120680269D1
:1008C0000A430261D3E70000002701401902FEFF3E
:1008D00010B586B0044614216846FFF756FC0E4951
:1008E0002068884215D10D48416B42151143416380
:1008F000C26A01210A43C262C06A009108400590A1
:10090000032001900020029005206946000700F0B6
:100910002DF906B010BD0000002401400010024077
:1009200070B5044600F0EAF90546601C00D0641C6E
:1009300000F0E4F9401BA042FAD370BDF0B50023EB
:100940005DE001249C4022460A4057D006685F00C3
:100950000325BD402E43AC460660DD08AD002D18D2
:100960002E6AAE465D07EF0E0F25BD40AE437546BD
:100970002E6286686546AE4386604568A54345603D
:10098000C4686546AC43C4609D081F4CAD002D197A
:10099000AF689C07260F0F24B440A4463C400527AF
:1009A0003F07B84201D1002714E0184FB84201D1E7
:1009B00001270FE0164FB84201D102270AE0154F78
:1009C000B84201D1032705E0134FB84201D10527F2
:1009D00000E00627B740A74210D1AE686446A643A0
:1009E000AE600E4C2568954325606568954365604B
:1009F000A5689543A560E5689543E5605B1C0A46DC
:100A0000DA409ED1F0BD000000000140000400501B
:100A100000080050000C0050001C00500004014071
:100A2000F8B504460A20FFF77BFF4048012701780C
:100A3000F8023F4D01293AD141003E4E8C420DD182
:100A40000A20FFF76DFF05202146000700F04AF954
:100A5000002800D137700120000322E0E11FFF3998
:100A6000FA390FD0012189028C4220D10A20FFF7E8
:100A700057FF274605203946000700F033F90028C4
:100A800011D012E00A20FFF74BFF01210520490297
:100A9000000700F027F9002801D102203070012062
:100AA000400268611DE0032030706F612EE0064651
:100AB000B44216D10A20FFF733FF05203146000764
:100AC00000F010F9002820D11B4801781B480129AB
:100AD00004D107701AA002F09BFA16E00021017001
:100AE00013E0FF260136B44210D10A20FFF718FFA9
:100AF00005203146000700F0F5F8002805D10E4822
:100B0000017810480129E9D107706E616C610E48C7
:100B10000078012808D108480078012804D103F0A2
:100B200053FA0AA002F074FAF8BD00000300002096
:100B300000040140500000200400002005000020B7
:100B4000313536000600002032000020D0D1C0B47C
:100B50000D0A000010B504494A69024202D04861FA
:100B6000FFF75EFF10BD000000040140F8B5002350
:100B70000124A2E027469F403A4070D04D68022DE4
:100B800001D0122D14D1DD08AD002D1800952D6A6D
:100B90005E07AC46F50E0F26AE46AE406546B54341
:100BA000AC460E697546AE4065462E43009D2E62EA
:100BB0004D68012D05D0022D03D0112D01D0122D2D
:100BC00016D185680326AC465D00AE46AE4065464C
:100BD000B543AC46CE687546AE4065462E4386604A
:100BE00046680D79BE43ED06ED0F9D4035434560E7
:100BF00006685F000325BD40AE46AE430D79B4469E
:100C0000AE07B60FBE4065462E430660C668754601
:100C1000AE438D68BD403543C5604D68ED004BD592
:100C2000294D6E6B26436E639E08284DB6007519DC
:100C3000AC46AD689E07360F0F27B740BD4305276A
:100C40003F07B84201D1002715E0214FB84201D13A
:100C5000012710E01F4FB84202D102270BE02BE022
:100C60001D4FB84201D1032705E01C4FB84201D106
:100C7000052700E00627B7402F436546AF60184DB3
:100C80002E684F689643FF0300D516432E606E68AA
:100C90004F689643BF0300D516436E60AE684F6839
:100CA0009643FF0200D51643AE60EE684F68964348
:100CB000BF0200D51643EE605B1C0A681546DD4096
:100CC00000D057E7F8BD00000010024000000140CE
:100CD0000004005000080050000C0050001C0050A0
:100CE000000401400069084000D001207047002A3C
:100CF00001D081617047816270470000014800683F
:100D0000704700003400002002480168491C01605F
:100D1000704700003400002010B508480024016826
:100D2000402211430160204600F00AF8002801D05B
:100D3000012401E000F03CF8204610BD00200240F4
:100D400000B5014687B000220F2000F047F80F20C1
:100D500000F03AF81248816B01221143816305A922
:100D6000684600F0DDF900F0FBF90E49FFF7C0F925
:100D700001220D4992070A600C4A401ECA60486071
:100D8000002008618860084600F012FF002802D0A9
:100D9000012007B000BD044800F025FFF9E700007E
:100DA0000010024040420F0028020020E70300002C
:100DB0000448416B012211434163816B02041143DA
:100DC0008163704700100240C106C90E01208840AF
:100DD000014908607047000000E100E010B501F033
:100DE000ABFB10BD0248016802151143016070475A
:100DF00000700040024801684215114301607047CD
:100E0000007000400A4B1A689208920002431A6070
:100E100008480369042213430361012906D040BF37
:100E200020BF20BF016991430161704730BFF9E7DE
:100E30000070004000ED00E0F8B504460078544D25
:100E4000800672D5524E0027403EB06BC00004D4DD
:100E5000B06BA9050843B06301274E480168C90576
:100E600011D40168821511430160FFF747FF00901C
:100E700005E0FFF743FF0099401A642837D845483A
:100E80000068C005F5D532680321090560680A408D
:100E90000140914208D08103890F032904D13168B0
:100EA000890301D50120F8BD2A69032109040A40FC
:100EB00022D0084090421FD0207880061CD5286997
:100EC0002A6988430121C9040A432A612A698A439D
:100ED0002A612861C0050FD5FFF710FF009008E0D8
:100EE000FFF70CFF0099411A2B48814201D90320DA
:100EF000F8BD28698005F3D561688803800F032851
:100F000005D132680005824301400A4332602869F6
:100F1000032261681204114008432861002F04D0A5
:100F2000B16B012000078143B1632078C00705D071
:100F3000E868A168800880000843E860207880079E
:100F400005D5E8680C218843E1680843E86020780B
:100F5000400706D5E86803218902884321690843D0
:100F6000E8602078000706D5E86803210903884374
:100F700061690843E8602078000606D5E868032127
:100F800089048843A1690843E8600020F8BD000097
:100F900040100240007000408813000070470000BD
:100FA000F8B50E4605007DD053480068C007C00F55
:100FB000B0420AD2504801684908490031430160F3
:100FC0000068C007C00FB04271D128784B4C800731
:100FD00005D5E068F0218843A9680843E0602878D7
:100FE000C00752D06868022817D0032818D021689B
:100FF000012818D08905002959DAE1688908890093
:101000000143E160FFF77AFE69680746022912D0C2
:1010100003291CD0012926D033E021688903EAE79F
:1010200021688901E7E74907E5E7FFF767FEC11B8C
:101030003348814223D8E0680007800F0228F4D1AA
:1010400023E0FFF75BFEC11B2D48814217D8E06803
:101050000007800F0328F4D117E0FFF74FFEC11BF4
:10106000274881420BD8E0680007800F0128F4D19F
:101070000BE0FFF743FEC11B2148814201D9032049
:10108000F8BDE0680007800FF3D11B480168C9076D
:10109000C90FB1420DD901684908490031430160C7
:1010A000006800E003E0C007C00FB04201D001209B
:1010B000F8BD2878400706D5E06807210902884373
:1010C000E9680843E0602878000707D5E068072151
:1010D000C90288432969C9000843E06000F060F84C
:1010E000E168084A0906090F515CC84006490860D2
:1010F0000020FFF725FEF8BD00200240001002404E
:10110000881300001C4100083800002003480168D3
:101110000122D20411430160704700000010024018
:1011200010B50F2202600C4AD3689B079B0F4360E7
:10113000D368F02423408360D46807231B021C403B
:10114000C460D268D2081A40026104480068C0072F
:10115000C00F086010BD00000010024000200240D7
:10116000044805490068C968044A4905490F515CAB
:10117000C840704738000020001002403541000888
:10118000044805490068C968044A8904490F515C4C
:10119000C840704738000020001002403541000868
:1011A00010B5184AD1680C20084004280BD0082834
:1011B00010D00C2810D050680004410F0120C0034B
:1011C000491C884010BD1068C00601D50E4810BDEE
:1011D0000E4810BD0E4810BD88020E4B000F185C63
:1011E0000902D368890F491CDB0301D5084A05E0D1
:1011F0001268D20601D5044A00E0044A5043FEF7C3
:1012000077FF10BD0010024000093D000024F400EB
:1012100000127A002C41000810B5044C6069C0052A
:1012200003D5FFF7BBFEA015A06110BD0010024062
:10123000FEB505007ED0FE4CE7680C20E66807404E
:101240000120000406402878C00747D0082F05D0A9
:101250000C2F0AD101200004864206D120688003A9
:101260003CD568680028E5D038E0012069680004B2
:10127000814203D121680143216011E0052301224D
:101280001B0492049942216802D111432160F1E7C5
:1012900081432160216801400091206890432060D3
:1012A000686800280DD0FFF729FD009005E0FFF7E2
:1012B00025FD0099401A64287AD820688003F6D565
:1012C0000CE0FFF71BFD009005E0FFF717FD00990C
:1012D000401A6428F0D820688003F6D42878800764
:1012E00055D50923E868042F0DD00C2F01D1002E0D
:1012F00009D000283BD02168994301432160FFF7C2
:10130000FDFC064627E02168490701D5002891D059
:1013100061681F22120291432A691202114361601F
:101320002168994301432160FFF73AFFE16809060C
:101330000A0F00E079E1BF49895CC840BE490860F6
:101340000020FFF7FDFC002872D120E0FFF7D6FC5B
:10135000801B0228B0D820684007F7D560681F219D
:101360000902884329690902084360600FE0206888
:10137000400840002060FFF7C1FC064604E0FFF78C
:10138000BDFC801B022897D820684007F7D4287836
:10139000C0065FD5002F0CD0A869002849D020686E
:1013A000FF21013108432060FFF7A8FC06462DE02D
:1013B000C0E02068800502D5A8690028A7D0606831
:1013C000072149038843296A084360606068297FD0
:1013D0000002000A090608436060286A410B0120E8
:1013E000C003491C8840E16809060A0F9149895CDD
:1013F000C840914908600020FFF7A2FC002817D1DF
:1014000028E0FFF77BFC801B0228A3D8206880051A
:10141000F7D56068072149038843296A084360605B
:101420006068297F0002000A09060843606011E035
:10143000E1E02168FF20013081432160FFF75EFC7D
:10144000064604E0FFF75AFC801B022872D8206889
:101450008005F7D42878794E000724D568690028DC
:10146000306910D0012108433061FFF747FC00903C
:1014700005E0FFF743FC0099401A02285AD830696A
:101480008007F6D50FE0400840003061FFF736FCDA
:10149000009005E0FFF732FC0099401A022849D875
:1014A00030698007F6D42878400765D5002002907F
:1014B000A06BC00006D4A06B012109070843A063FC
:1014C000012002905E480168C90511D401688215A7
:1014D00011430160FFF712FC009005E0FFF70EFCDE
:1014E0000099401A642825D855480068C005F5D5EC
:1014F000FF20AA680130824203D131690143316182
:1015000011E001218902002A07D005231B029A421B
:1015100003D132690A433261EFE7326982433261B3
:10152000306988433061A86800280FD0FFF7E6FBD8
:10153000009007E05EE0FFF7E1FB0099411A4148A7
:10154000814257D830698005F5D50DE0FFF7D6FB0D
:10155000009006E0FFF7D2FB0099411A394881421A
:1015600048D830698005F5D40298002804D0A06BD3
:10157000012109078843A063686A002864D00C2F02
:101580003ED0012636060228206805D0B0432060F0
:10159000FFF7B4FB05462FE0B0432060FFF7AEFB3A
:1015A000074604E0FFF7AAFBC01B022822D82068E8
:1015B0008001F7D4E96AA86AE2680843296BFD2331
:1015C0001B049A4311430843E060206830432060C5
:1015D000FFF794FB054604E0FFF790FB401B022851
:1015E00008D820688001F7D52EE0FFF787FB401B65
:1015F000022801D90320FEBD20688001F5D423E034
:101600000128F8D0E06801210904AA6A014091424A
:101610000BD10F218904EA6A0140914205D10321CF
:1016200089050840296B88420ED00120FEBD0000CC
:10163000001002401C410008380000204010024009
:1016400000700040881300000020EFE7F7B5054662
:1016500004462035287882B0012814D00120287053
:10166000022068702168CA204862216853204862BD
:101670002068806800264005FF27002812DAFFF75F
:101680003DFB00900AE0022005B0F0BDFFF736FBFD
:101690000099411A7D20C00081421CD82068C06892
:1016A0004007F3D42068816801229202914381604F
:1016B0002068C16880221140204A8918C160FFF764
:1016C0001DFB00900DE0FFF719FB0099411A7D20EA
:1016D000C000814205D920684762032068702E70DF
:1016E000D2E72068C0684007EDD5216803984861BB
:1016F00020688168C908C900816020688168049AEF
:10170000114381600E480268012109050A43026005
:1017100082680A4382602068816801229203114333
:1017200081602068816812111143816020684762DE
:10173000012068702E700020A6E700007FFBFFFFED
:10174000000401407047000010B504460068C068FE
:10175000400509D52046FFF7F5FF2068C1688022C3
:101760001140054A8918C1600120044900054861FB
:1017700001202034607010BD7FFBFFFF000401409A
:10178000F8B5040050D0254620356878002803D1EC
:101790002870204600F052F8022068702168CA20A4
:1017A0004862216853204862204600F0E8FEFF2688
:1017B00004270028206802D046626F7034E08168F8
:1017C0001D4A11408160216888686268A3691043DE
:1017D00022691A43104388602168E0680861206824
:1017E000016922891204114301612068C1688022C5
:1017F0009143C1602068C16C89088900C164E169B6
:10180000606901432068C26C1143C164206880682C
:1018100080060BD4204600F021F8002806D020686E
:1018200046626F70002028700120F8BD2068466273
:10183000012068700020F8BDBFFF8FFF00680549D8
:10184000884205D1044801690122920411430161D3
:1018500070470000002800404010024070B5044668
:101860000068C168A0229143C160FFF747FA7D2656
:101870000546F60006E0FFF741FA401BB04201D9E9
:10188000032070BD2068C0688006F4D5002070BDBC
:1018900070B5040012D00221204640300546417444
:1018A00020680168402291430160204600F048F81A
:1018B0000021616569742974084670BD012070BDFE
:1018C00070B5040007D0002625464035A662687C26
:1018D000002802D005E0012070BD2E74204600F0E3
:1018E00043F8022068742068016840229143016037
:1018F000A168606822690843E1681143084361698F
:1019000001220843A169520211400843E1690843DA
:10191000216A0843A16A084321680860A06904217C
:10192000000C0840616A0843216848602068C1696A
:1019300092009143C161666501206874002070BD0A
:1019400010B500680649884209D10648416B8214E7
:10195000914341630520E0210007FEF7EFFF10BD32
:10196000003001400010024010B586B0044614213A
:101970006846FEF70AFC10492068884219D10F48D2
:10198000416B821411434163C16A01221143C16258
:10199000C06A002110400590E020009002200190D4
:1019A0000320039002910491052069460007FFF788
:1019B000DDF806B010BD000000300140001002400C
:1019C000FFB5044683B00120019000202646403632
:1019D0000090307C0C9F1D4601280FD001203074F0
:1019E000FFF78CF90290707C616801280DD0CA1F46
:1019F000FD3A08D1A168002905D102E0022007B014
:101A0000F0BD042801D00220C3E00498002828D0AB
:101A10000598002825D0002D23D0707C042801D003
:101A200005207074002060650599A163E587A5878E
:101A300004992163E586A5862064606420680168B6
:101A4000490603D401684022114301600121E06886
:101A5000C9028842606848D1002804D0012D02D014
:101A60003CE0012095E0206B21680088C860206B75
:101A7000801C2063E08E401EE0862FE02068816895
:101A8000890710D5E18E00290DD0019901290AD1CD
:101A9000216B0988C160206B801C2063E08E401E92
:101AA000E0860020019020688168C9070DD0E18F91
:101AB00000290AD0C068A16B0880A06B801CA063BD
:101AC000E08F401EE08701200190FFF717F90146E3
:101AD0000298081AB84201D3781C59D1E08E002828
:101AE000CCD1E08F0028C9D146E0002801D0012DDB
:101AF0003CD1206B216800780873206B401C206368
:101B0000E08E401EE08631E020688168890710D5AC
:101B1000E18E00290DD0019901290AD1216B0978A4
:101B20000173206B401C2063E08E401EE086002085
:101B3000019020688168C9070DD0E18F00290AD083
:101B4000C068A16B0870A06B401CA063E08F401EB2
:101B5000E08701200190FFF7D1F80299401AB842BE
:101B600002D3781C02D013E0002F11D0E08E0028A1
:101B7000CAD1E08F0028C7D139462046029A00F02A
:101B800023FD002807D0012000902020606509E097
:101B90000320009006E0A068002803D12068C168F7
:101BA000806801900120707400203074009826E74E
:101BB00070B5040005D025462035687E002802D087
:101BC00006E0012070BD00202876204600F00AF8CB
:101BD00002206876211D206801F012F80120687645
:101BE000002070BD70470268D36801210B43D360A9
:101BF000006882685207520F062A02D002680A4320
:101C0000026000207047704770B5044600680169A3
:101C10000025C9438907002915DBC168C943890725
:101C200011D4E91E016101202076206880698007B7
:101C3000204602D0FFF7E7FF04E000F078F82046E6
:101C400000F076F8257620680169C943490717D462
:101C5000C168C943490713D40421C9430161022063
:101C60002076206880698005800F204602D0FFF72B
:101C7000CAFF04E000F05BF8204600F059F8257632
:101C800020680169C943090716D4C168C943090717
:101C900012D40821C9430161042020762068C0695C
:101CA0008007204602D0FFF7AEFF04E000F03FF8C7
:101CB000204600F03DF8257620680169C943C90631
:101CC00017D4C168C943C90613D41021C94301619F
:101CD000082020762068C0698005800F204602D049
:101CE000FFF791FF04E000F022F8204600F020F812
:101CF000257620680169C943C90708D1C168C9436D
:101D0000C90704D1891E0161204600F012F820683D
:101D10000169C943490609D4C168C943490605D4C4
:101D20004021C9430161204600F00CF870BD7047A6
:101D3000704710B5006801218907884201D1FEF77C
:101D4000E3FF10BD704770B5040017D02420606712
:101D50002068016849084900016020680025056085
:101D60002068456020688560204600F03FF8E56700
:101D70006567A56760342574002070BD012070BDC3
:101D800010B5040003D0606F002802D007E00120E6
:101D900010BD002170200155204600F03FF824209E
:101DA000606720680168490849000160204600F02A
:101DB000E9FF0128ECD0606A002802D0204600F03C
:101DC0004BFF206841680922D2029143416020689C
:101DD00081682A22914381602068016801221143B1
:101DE0000160204600F09EFF10BD000010B50068A5
:101DF000074988420AD10748816B01229204914326
:101E00008163032189020448FEF798FD10BD00009C
:101E100000480040001002400004005010B586B099
:101E2000044614216846FEF7B0F91049206888423C
:101E300019D10F48816B0122920411438163C26A58
:101E400002210A43C262C06A019108400590032042
:101E500080020090002002900390042004906946C4
:101E60000448FEF783FE06B010BD000000480040A5
:101E70000010024000040050FFB50446406F83B0DC
:101E800017460D4620285CD1002D0AD0002F08D01F
:101E9000A168C001814207D12069002804D1E80768
:101EA00002D0012007B0F0BD204660300290007CD7
:101EB000012846D00298012101740020E06721200A
:101EC0006067FEF71BFF2646403601903782778217
:101ED0000120A1680003814202D12069002802D0BC
:101EE0002F46002511E000270FE000228021204628
:101EF00001F05CF8002815D1002F15D02168387842
:101F000088627F1C708A401E7082708A019B002844
:101F100006980090E9D100224021204601F046F8C1
:101F2000002808D00320BDE728882168C005C00D1F
:101F30008862AD1CE6E720206067029900200874E3
:101F4000B0E70220AEE7FEE770B501240E4D640253
:101F5000002221462846FEF7CAFE00F017F80122AB
:101F6000160231462846FEF7C2FE00F00FF80022A6
:101F700031462846FEF7BBFE00F008F80122214654
:101F80002846FEF7B4FE70BD000400500020401C3F
:101F9000C0B20528FBD3704770B50C4C012251022A
:101FA0002046FEF7A4FEFFF7F1FF012215022946A5
:101FB0002046FEF79CFEFFF7E9FF00222946204657
:101FC000FEF795FEFFF7E2FF70BD00000004005031
:101FD000F8B50024FF27114E254601376006040E90
:101FE000012239463046FEF782FEFFF7CFFF01217E
:101FF00049023046FEF776FE002801D0641CE4B2A8
:10200000002239463046FEF772FEFFF7BFFF6D1C17
:10201000EDB2082DE2D32046F8BD000000040050C8
:10202000F8B50024FF27154E05460137280601D5CF
:10203000012200E00022012149023046FEF757FE4E
:10204000FFF7A4FF012239463046FEF750FEFFF7A6
:102050009DFF002239463046FEF749FE072C04D189
:10206000012251023046FEF742FE6806050EFFF7D8
:102070008DFF641CE4B2082CD8D3F8BD00040050D6
:1020800070B501220E4D540221462846FEF72FFE60
:102090000122160231462846FEF729FEFFF776FF99
:1020A000002221462846FEF722FEFFF76FFF00229E
:1020B00031462846FEF71BFEFFF768FF70BD0000A3
:1020C0000004005070B50124094D6402002221462D
:1020D0002846FEF70CFE012211022846FEF707FEF5
:1020E000FFF754FF012221462846FEF700FE70BD8F
:1020F0000004005070B50122104D540221462846BC
:10210000FEF7F5FDFFF742FF012216023146284691
:10211000FEF7EDFDFFF73AFF21462846FEF7E2FD08
:10212000002801D0012400E0002400223146284686
:10213000FEF7DDFDFFF72AFF204670BD00040050CA
:1021400070B5204E0446012228213046FEF7CFFD0F
:10215000002208213046FEF7CAFD0520FEF7E0FB0D
:10216000E007C00F002500280ED0012208213046CC
:10217000FEF7BDFD3C2001F0E9FA002208213046BF
:10218000FEF7B5FD14200DE0012208213046FEF7D0
:10219000AEFD142001F0DAFA002208213046FEF7E5
:1021A000A6FD3C2001F0D2FA6408E0076D1CC00FC8
:1021B000EDB2082DD7D3012208213046FEF797FD56
:1021C00070BD00000004005070B5294D29492868F1
:1021D00040182949884237D228790009000128711E
:1021E000902831D80107254C090F0DD100110300AB
:1021F00000F035FF0A3A38363432302E2C08060A01
:102200001F4800E01F48206068790009000101466E
:1022100060396871612917D201090220491E88407E
:10222000FEF77CF82168FDF7C2FF6060A8790E21F7
:102230000840A871801E072806D2072028560F28BC
:1022400002DCE87A7F2811D9002070BD0E48DAE759
:102250000E48D8E70E48D6E70E48D4E70E48D2E736
:102260000E48D0E70E48CEE70E48CCE7012070BDFF
:102270004400002080B85EE681CE341D3C00002082
:102280000000FA4300007A430000FA4200007A425C
:10229000D7A326420000FA41D7A3A64185EB794196
:1022A0005C8F264185EBF9401CB500211848009150
:1022B000164A01910260C163816003220124816397
:1022C0009207046142600246C16020321170FF2310
:1022D0005170C233436281621173016381610422D0
:1022E00041634261C161FEF70FFA002801D0FEF799
:1022F000BFF9012000030190694600940448FEF7ED
:10230000B9F9002801D0FEF7B3F91CBD0024014043
:10231000D0000020F0B587B014216846FDF735FFE6
:102320004148C26A04210A43C262C26A0A40059255
:10233000C26A80210A43C262C26A0A400592C16A27
:1023400001252943C162C16A29400591C26A02215F
:102350000A43C262C06A2A4608400590052010213F
:102360000007FEF7C4FC324F012230493846FEF721
:10237000BEFCE121012209023846FEF7B8FC6803E1
:10238000002400900194694602942A48FEF7EEFB6F
:102390000320800303260090694601960294254895
:1023A000FEF7E4FB0E20009005206946019602949A
:1023B0000007FEF7DBFB1020009005200195694621
:1023C000029503940007FEF7D1FB0095029469463D
:1023D000384601950394FEF7C9FB174800906946FB
:1023E000019602943846FEF7C1FB1448009001950F
:1023F0006946029503943846FEF7B8FB1F20000299
:1024000000900F4801900520694602950007FEF7ED
:10241000ADFBE80300900520019469460294000793
:10242000FEF7A4FB07B0F0BD001002402910000029
:102430000004005000080050D602000028F10000FF
:102440000000211010B50C480A490160E121490241
:10245000416000218160C160016181610C220162E3
:1024600042614162FFF78CFC002801D0FEF700F9C1
:1024700010BD0000004800402C01002010B50022D3
:1024800001210220FEF7AAFC0220FEF79DFC00229B
:1024900002210720FEF7A2FC0720FEF795FC10BDE5
:1024A00010B510480E49016024228260002141606D
:1024B000016141610C4A8161C260C161FFF760F94D
:1024C000002801D0FEF7D4F84B210422C9000548AA
:1024D000FFF7BCF8002801D0FEF7CAF810BD0000D5
:1024E00000280040AC010020E703000010B50F48B1
:1024F0000D490160FF210531416000218160C1600B
:10250000012201615202826141610162282241621D
:10251000C26181620721C162FFF7D2F9002801D0B0
:10252000FEF7A6F810BD000000300140D0010020E9
:1025300010B5FEF771FE10BD8307FF22DB0E9A4037
:102540008907090E994000280BDA0007000F0838A8
:10255000830808489B001818C36993430B43C36161
:102560007047830804489B001B1818689043084371
:102570001860704700ED00E000E400E0704770B5BF
:1025800004460068C168490613D40021C943C160EC
:10259000FEF7B4FB7D260546F60006E0FEF7AEFB2F
:1025A000401BB04201D9032070BD2068C0684006BE
:1025B000F4D5002070BD000010B50248FFF7C4F844
:1025C00010BD0000AC01002038B504464068FF2370
:1025D00005332025984204D100920B460022802129
:1025E00007E05120005D05280DD100920B46002226
:1025F0000121204600F009F8002804D0606D28432E
:102600006065032038BD002038BDF8B51D4617466B
:102610000E46044609E0681C07D0FEF76FFB0699DA
:10262000401AA8420BD2002D09D02068816830469C
:1026300088432ED00020B842EDD10020F8BD20689C
:102640004168E022914341606068C11FFD390CD1AF
:102650000121A068C903884202D04911884204D1EF
:10266000206801684022914301600120A16A400373
:10267000814207D121680A6882430A6021680A689A
:1026800002430A600120403460740020207403205B
:10269000F8BD0120CFE7704710B5002804D0002016
:1026A00000F01AF9012003E0012000F015F90020E4
:1026B00000F0DEF910BD000010B501214903024809
:1026C000FEF710FB10BD000000080050FEB52348C7
:1026D00023490068234A4118914201D30120FEBDDD
:1026E000FDF728FE0022204BFDF7A0FDFDF730FE90
:1026F00004460020694608700871087200F086F9E7
:10270000260CF1B2062000F0E7F9250AE9B207200D
:1027100000F0E2F9E1B2082000F0DEF96946062097
:1027200000F0DBF801A9072000F0D7F802A9082083
:1027300000F0D3F869460978F0B2884209D16946B9
:102740000979E8B2884204D16946097AE0B2884240
:1027500001D00220FEBD0020FEBD0000440000208C
:1027600080B85EE681CE341D80844E407CB5FFF794
:102770002BFD00281ED000F0E5F80021012000F01C
:10278000ABF98021012000F0A7F98121012000F0A0
:10279000A3F90025684605709121242000F09CF9DA
:1027A0006946242000F099F868460078912803D003
:1027B00002207CBD01207CBD4021412000F08CF92D
:1027C00023210C2000F088F9FFF780FF00F056F875
:1027D00006210A2000F080F93B210B2000F07CF953
:1027E000214C2220E17A00F077F92179A079014388
:1027F000A07A012801D0012000E0002001431D2023
:1028000000F06AF9607A6179012808D0002001435C
:102810001E2000F061F96079602802D013E00420E6
:10282000F5E76846057101A9312000F056F86846C1
:102830000079C108C9003120491D00F04DF90C2173
:10284000372000F049F90848832108384068C90555
:10285000884201DD082100E00021042001432620F8
:1028600000F03AF900207CBD44000020024610B57B
:10287000052010210007FEF73AFA10BD38B5154CB7
:10288000072020560F2801DD012038BD00F0BEF8DA
:10289000E079F0252843C1B2092000F01DF900219C
:1028A000684601706946092000F017F80721615653
:1028B000684600782943814201D0022038BD207A41
:1028C000012805D084214D2000F006F9002038BDF4
:1028D0008721F8E744000020704710B5012200F07E
:1028E00001F810BD70B5044615460E460020FFF7EE
:1028F000BDFF6006400E00F015F8002405E0002042
:1029000000F010F83055641CE4B2AC42F7D301205B
:10291000FFF7ACFF70BD0A4610B501460020FFF777
:10292000E1FF10BD01B582B07D20C0000090012301
:1029300001AA02A90248FFF743F8684600790EBDD4
:10294000D001002010B5094C002201212046FEF7DD
:10295000CEF9C820FDF7E4FF012211462046FEF71C
:10296000C6F9C820FDF7DCFF10BD000000040050D0
:102970007CB5054601A91920FFF7AFFF684601792C
:102980001B4C080607D5C843401C0006800E69464C
:102990000871404202E088086946087160811A2087
:1029A000FFF79BFF0A20205E002803DA69460978BA
:1029B000081A05E0684600780F210001FDF798FB32
:1029C000A43820810B4CA07A012808D121460B3174
:1029D0001320FFF782FF00210D2000F07DF8E17A3F
:1029E0002846FFF798FFFF21122000F075F87CBD04
:1029F000640200204400002010B58121012000F075
:102A00006BF88021012000F067F810BD10B581211E
:102A1000012000F061F810BD10B58121012000F007
:102A20005BF80021202000F057F80A21212000F057
:102A300053F80E48C17A222000F04EF80020FFF72C
:102A40002BFE00210D2000F047F8FF21122000F09E
:102A500043F8BF21112000F03FF80021402000F092
:102A60003BF88521012000F037F810BD440000201C
:102A70007047000070B504468121012000F02CF859
:102A80000021202000F028F80A21212000F024F85D
:102A9000104D2220E97A00F01FF80120FFF7FCFD1D
:102AA00080210D2000F018F8EA7A2146002000F07D
:102AB00019F8FF21122000F00FF8F721112000F083
:102AC0000BF84021084600F007F88321012000F0B0
:102AD00003F870BD4400002013B5012201A900F0E5
:102AE00001F81CBD70B5044615460E460020FFF7E0
:102AF000BDFE204680210843FFF714FF002404E0B8
:102B0000305DFFF70FFF641CE4B2AC42F8D3012044
:102B1000FFF7ACFE70BD704710B59AB0342168461F
:102B2000FDF733FB14210DA8FDF72FFB1C2112A884
:102B3000FDF72BFB184801680322D2029143C2140F
:102B40008918016009200090012150010591019030
:102B50000A90C001022100240C900B940991684650
:102B6000FEF766FB0F200D9003200E9080200F9043
:102B70001094002111940DA8FEF712FA242012904F
:102B8000012040041390169412A8FEF755F9FEF7A1
:102B9000BDFA1AB010BD0000007000401048016876
:102BA000821511430160C1680E4A1140C16001687D
:102BB0000D4A11400160816849084900816001683F
:102BC0000122920491430160C168FD2212049143E5
:102BD000C160002101610549C003886070470000A1
:102BE000001002400C40FF88F6FFF6FE00ED00E00A
:102BF00010B50248FFF708F810BD000028020020B9
:102C000070B5026801239B07114C124D984203D006
:102C1000A04201D0A84203D17026B2434E6832438D
:102C2000984203D0A04201D0A84204D103231B0242
:102C30009A43CB681A4380239A430B691A43026074
:102C40008A68C262096881620121416170BD000029
:102C5000000801400014014010B5818CC90707D05D
:102C600001684A6801235B049A43836A1A434A60F5
:102C7000818C890707D501684A6801231B049A43A0
:102C8000C36A1A434A60818C490707D501684A68BC
:102C900001239B049A43036B1A434A60818C090702
:102CA00007D501684A680123DB039A43436B1A4343
:102CB0004A60818CC90607D50268916801231B030D
:102CC0009943836B19439160818C890607D501680C
:102CD0008A6801235B039A43C36B1A438A60818C21
:102CE000490612D503685A6801210905046C8A4314
:102CF00022435A60026C8A4207D10268516803235A
:102D00005B059943436C19435160818C090607D5D3
:102D100001684A680123DB04806C9A4302434A60DD
:102D200010BD0000F8B500260446C667FDF7E6FFB3
:102D3000054620680068124F000709D501212B467F
:102D4000002249052046009700F030F900280DD1F7
:102D50002068006840070BD501212B460022890519
:102D60002046009700F022F9002801D00320F8BD8A
:102D700020206067A067603426740020F8BD000042
:102D8000FFFFFF01F8B504462669A268E7693243F0
:102D90006669102000253E432368324378491E6847
:102DA000784F3E4016431E6023685A680326360358
:102DB000B243E66832435A602368A2698B4201D06D
:102DC000266A32439E680B273F02BE4316439E602D
:102DD0006D4E23686D4AB3420CD1D2689207920FB0
:102DE00006D0012A38D0022A34D0032A20D11EE08E
:102DF00001201DE0664EB3420AD1D2680C26324053
:102E000026D0042A28D0082A24D00C2A10D10EE07B
:102E10008B420DD1D66803229202164018D00122AF
:102E20009202B61A18D0B61A14D0964200D10820D1
:102E3000564A0126403A574FF6038B4236D10028B6
:102E40000CD002280DD0042812D008281FD11CE075
:102E50000020EDE70220EBE70420E9E7FEF780F928
:102E600008E01068C00601D5384605E04A4803E08E
:102E7000FEF796F9002873D062685100511881421C
:102E800005D81103814202D303E03046F4E701255F
:102E900066E0010E06025008002330185941FDF784
:102EA0003DF903210902411A3C4A55E0E169B1426A
:102EB00032D1030000F0D3F809070A0D06250606F3
:102EC000062B0600E3E7FEF74BF91CE0FEF758F986
:102ED00019E010686168C00602D54808304A01E070
:102EE000304A48088018FDF703F980B201462E4A9F
:102EF00010399142CBD8511C01400007400F0843C4
:102F00002CE0FEF74DF9616840004A08EAE7616885
:102F1000012248081204E5E7030000F0A0F80907C1
:102F20000A0D06260606062C0600B0E7FEF718F97D
:102F30001DE0FEF725F91AE010686168C00602D5A9
:102F40004808C01902E014484A081018FDF7D0F8E4
:102F500080B20146144A1039914298D82168C8605D
:102F60000020206660662846F8BDFEF719F9616802
:102F70004A088018EAE7616848088019E6E7000017
:102F800000480040F369FFEF003801404010024064
:102F90000044004000093D000024F400FFFC0F0045
:102FA00000127A000048E801EFFF0000FFB581B091
:102FB00017460E4604460A9D09E0681C07D0FDF737
:102FC0009DFE0499401AA8420CD8002D0AD0206812
:102FD000C1693046884318D00020B842EDD00020A7
:102FE00005B0F0BD20680168FF22A1329143016065
:102FF0002068816849084900816020206067A067D7
:103000000020603420740320EAE70120E5E7000097
:103010000FB410B503A9044B044A029800F03CF821
:1030200010BC08BC04B018470D3C00085400002038
:103030002021020C01D010211046020A01D01046B6
:103040000839020901D01046091F820801D0104634
:10305000891E420801D0881E7047081A704730B494
:103060007446641E2578641CAB4200D21D46635D25
:103070005B00E31830BC184702E008C8121F08C103
:10308000002AFAD170477047002001E001C1121FE9
:10309000002AFBD170470000FFB591B00F460546EE
:1030A000002606E025280AD0149A139990476D1C33
:1030B000761C28780028F5D1304615B0F0BD0024E4
:1030C00000940121F34A029400E004436D1C2B7824
:1030D0000846203B98401042F7D128782A280ED085
:1030E000022128780246303A092A15D8009A0A2384
:1030F0005A43303A80180C436D1C0090F1E701CF21
:103100000090002805DA0120400304430098404263
:103110000090022004436D1C28782E2815D104202D
:10312000044368786D1C2A280AD101CF6D1C0290D7
:103130000BE002990A225143303940186D1C02906D
:103140002878014630390929F3D928786C2810D01D
:1031500006DC4C281AD068280ED06A2817D104E063
:10316000742813D07A2812D110E0012040050443BE
:103170000CE00121090501E0032109050C436978F0
:10318000814203D10120000524186D1C6D1C287894
:1031900003906E281ED00CDC632831D004DC00289C
:1031A0008AD0582811D1B2E064287BD069280CD18C
:1031B00078E073282DD004DC6F2870D0702804D1FB
:1031C000A7E075286CD078286BD0149A1399904793
:1031D000761C62E06002400F022807D003280AD064
:1031E000042838680AD006603F1D56E03868F11799
:1031F00006604160F8E738680680F5E70670F3E797
:103200003878694608740020487404A803900120A7
:1032100003E0386803900020C0433F1D61070FD5CD
:10322000002101E00199491C029A0191914213DAAF
:103230008142F7DB019A0399895C0029F2D10BE006
:10324000002101E00199491C01918142FADB019AB8
:103250000399895C0029F5D101990098139A401AC5
:1032600000902146149B00F03BF901998019461803
:1032700007E0039803990078491C0391149A139965
:1032800090470198401E0190401CF2D12146149BAA
:10329000139A009800F014F986196D1C09E741E0B3
:1032A00033E034E00A200021049005916002410FD0
:1032B000022905D001CFC2179446032905D007E0A3
:1032C000FF1DFF08FF0003CF06E000B2C2179446BF
:1032D000042902D140B2C1178C46002261469445B0
:1032E00006DA0A460021404291418C462D2102E037
:1032F000210504D52B216A461176012103E0E1075F
:1033000001D02021F7E7019154E00A200BE01020C2
:1033100009E01020049000210420044308200591B6
:10332000029003E008200021059104906002410F03
:10333000022905D001CF00229446032906D006E0D9
:10334000FF1DFF08FF0003CF8C4603E080B2042975
:1033500000D1C0B20021019121072BD5039970291A
:1033600006D0049A1021059B4A401A4305D00EE06E
:1033700040216A461176012108E06146014306D0EA
:1033800030216A4611760399517602210191049AFF
:103390000821059B4A401A430CD16146014301D1E3
:1033A000610707D530216A46117601210191029902
:1033B000491E02910399582904D037A103910FA9FE
:1033C0000F910DE039A1F9E76146059B049AFCF7DE
:1033D000A5FE039B8C469B5C0F9A521E0F921370A6
:1033E00061460143F0D10F9807A9081A20300390D5
:1033F000600704D5012000048443029801E0012005
:1034000002900399884201DD401A00E00020411833
:103410000290019809180098401A0090E00306D421
:103420002146149B139A009800F05AF88619002040
:10343000049008E006A9085C149A13999047049830
:10344000401C761C049001998842F3DBE0030CD504
:103450002146149B139A009800F042F8861904E064
:10346000149A302013999047761C0299481E0290B6
:103470000029F5DC08E00F980F990078491C0F919E
:10348000149A13999047761C0399481E03900029BB
:10349000F1DCFBE6092801003031323334353637B0
:1034A0003839616263646566000000003031323390
:1034B0003435363738394142434445460000000030
:1034C000F8B5044600251E461746880404D405E0D6
:1034D00039462020B0476D1C641EF9D52846F8BD3A
:1034E000FFB50446002581B01E46C80301D530272C
:1034F00000E02027880404D505E038460399B0474A
:103500006D1C641EF9D5284605B0F0BD70B5144891
:1035100004250168134801607021017190214171F7
:1035200085710F21C17101210172417281720A21DD
:10353000C172FFF71BF9044601460BA0FFF768FDB7
:10354000002C08D0FF24F5340AA0FFF761FD2046C7
:10355000FDF7E6F9F8E702481438857370BD0000FE
:1035600014000020440000206173746174653D25DF
:10357000640D0A006C6F726120696E697420666167
:10358000696C0D0A0000000000B587B01421684680
:10359000FCF7FBFD0C48C26A01210A43C262C06A03
:1035A0000291084005901F200002009007480190FA
:1035B000052069460007FDF7D9FAFEF771FFFEF70F
:1035C0005DFF07B000BD00000010024000002110A8
:1035D00070B50122002411460748FCF7C1FF0028FE
:1035E00008D0054D05A02978FFF712FD2878AA28F4
:1035F00000D10124204670BD000000206661637484
:103600006F72795F706172616D657465725F666C0F
:1036100061673D256400000010B5064C6079012803
:1036200001D100F061FCA079012801D100F09CFAE1
:1036300010BD000000000020F8B5414F0024B87A0A
:103640002546012820D002281BD0042817D1FCF7DA
:1036500083FF012813D16846057069461220FFF7E1
:103660003CF9FF211220FFF737FA6846007801077E
:1036700001D5022002E0400601D50120B8722046A3
:10368000F8BDFFF7C3F956E02E491320FFF725F9DF
:103690002D48FFF76DF9FFF7B9F92B4A10785A2832
:1036A00049D15078A52846D11079012843D1254E1B
:1036B00050790B3E012806D002281FD0062831D0B1
:1036C000072838D124E01E4900200F311446221863
:1036D00092790A54401CC0B20228F8D3184802223A
:1036E0001E210F30FCF772FF0020F17A02E0255412
:1036F000401CC0B28142FAD801241CE00020F17ABB
:1037000002E01554401CC0B28142FAD8022412E0F3
:103710000020F17A02E01554401CC0B28142FAD870
:10372000032408E00020F17A02E01554401CC0B2E6
:103730008142FAD80424FFF76FF904209EE70000C5
:10374000000000204F0000208A000020C100411826
:103750000648416101210161002181610269D307AD
:1037600001D0D203FAD501618161704700E000E029
:10377000F8B50020C24C0090607B7D250126C14F2A
:10378000ED000300FFF76BFC130B24253359648114
:103790009C24A5C024CFE4FAF8F7F6F52400FFF73F
:1037A00017FF012804D0B8A0FFF732FC022002E185
:1037B0000D20607306220A21B848FCF7D1FEB048FC
:1037C000062214212830FCF7CBFEB5A0FFF720FC21
:1037D00054E10920FEF7B4FC2846FDF7A1F828467D
:1037E000FDF79EF8B349002008700320E3E0E6707F
:1037F000AA4800F019FA0128EAD10020A74FE0708A
:103800000646BA5D3146ACA0FFF702FC761CF6B264
:10381000062EF6D32846FDF783F806220A219F4894
:10382000FCF7D4FE1320FEF78BFC2846FDF778F852
:103830002846FDF775F80420BDE00820FEF780FC5F
:103840002846FDF76DF82846FDF76AF80520B2E036
:103850008B48E670283000F0E7F90128B8D1002045
:10386000E0702846FDF75CF88548062214212830D0
:10387000FCF7ACFE1120FEF763FC2846FDF750F87C
:103880002846FDF74DF8062095E091A0FFF7C0FB14
:10389000FFF7BCF87A4B01229B1C1846A670114614
:1038A0000D3000F001FB607001468FA0FFF7B0FB08
:1038B0006078F87279486438FFF7DCF807207AE01E
:1038C000FFF7BAFE012897D18BA0FFF7A1FB0920D3
:1038D00071E08DA0FFF79CFBFFF798F86F4832214D
:1038E0006438FCF752FC664BA6709B1C18460222FB
:1038F00001210D3000F0D8FA6070F8726748643822
:10390000FFF7B8F80A2056E0FFF796FE0228A5D187
:103910000620FEF715FC2846FDF702F82846FCF7BE
:10392000FFFF0D2047E00A20FEF70AFC2846FCF7BF
:10393000F7FF2846FCF7F4FF78A0FFF769FB552056
:103940002070012211464E48FCF740FE112032E063
:10395000FFF75CF84A48514B072201210F3000F075
:10396000A3FA6070F8724D486438FFF783F80E20B0
:1039700021E077E021E019E006E0FFE7FFF75CFED9
:1039800003287BD10F2016E0FFF740F83C4B0622BE
:10399000283318460121193800F086FA6070F87251
:1039A0003E486438FFF766F8102004E0FFF744FE55
:1039B000042863D10C20607360E03848E6700A3058
:1039C00000F032F9012859D12D490020C8707D201E
:1039D000C000FCF7A5FF002554A0FFF719FB2F4EF0
:1039E00000240A36325D214656A0FFF711FB641C05
:1039F000E4B2062CF6D3294F00243A5D21462EA0CE
:103A0000FFF706FB641CE4B2062CF6D30020315C01
:103A10003A5C914201D16D1CEDB2401CC0B2062847
:103A2000F5D329464EA0FFF7F3FA062D0BD00D2053
:103A3000FEF786FB7D24E4002046FCF771FF20465C
:103A4000FCF76EFF1AE00E20FEF77AFB7D24E400FF
:103A50002046FCF765FF2046FCF762FF084812216C
:103A600041730BE00C20FEF76BFB2846FCF758FF78
:103A70002846FCF755FF2671012000900098F8BDFC
:103A80000000002044000020BDF8D0D0D3C3BBA765
:103A9000C3DCC2EBC9E8D6C30D0A0000BC0000209D
:103AA000D3C3BBA7C3DCC2EBD2D1BEADC9E8D6C37A
:103AB0000D0A000050000020757365725F7061731D
:103AC00073776F72645B25645D3D256400000000C0
:103AD000C7EBC7F3BAF3CCA8B7D6C5E4C9E8B1B809
:103AE000BAC50D0A000000007061636B5F6C656E03
:103AF0003D25640D0A000000B7D6C5E4C8EBCDF83B
:103B0000B3C9B9A60D0A0000C9E8B1B8BAC5D2D187
:103B1000BEADC4C3B5BD0D0A00000000B3F6B3A727
:103B2000C9E8D6C3CDEAB3C90D0A0000636865636E
:103B30006B5F70617373776F72645F6E756D0D0A82
:103B400000000000757365725F74656D705F706171
:103B50007373776F72645B25645D3D2564000000BC
:103B6000623D25640000000070B51A4C7D25607A26
:103B7000ED0000281CD001281FD0022817D1FEF725
:103B800045FF0020A070A31C1846042201210D301F
:103B900000F08AF9607001460FA0FFF739FA124968
:103BA0006078C8721148FEF765FF0120607270BD31
:103BB0000FA0FFF72DFA092003E011A0FFF728FA64
:103BC0000020FEF7BDFA2846FCF7AAFE2846FCF7BF
:103BD000A7FE70BD000000207061636B5F6C656EB6
:103BE0003D25640D0A00000044000020580000201C
:103BF000B7C0B2F0C6F4B6AFB1A8BEAF0D0A0000B0
:103C0000B7C0B2F0C9F9D2F40D0A000013B5044BE5
:103C1000012269460348FEF72FF900981CBD0000F9
:103C2000FFFF00002C01002070B50646002500F0C3
:103C3000B7F91C4C012804D002280AD0032819D156
:103C400010E00120FEF77CFAE07A401CE0720120CF
:103C500006E0E07A401CE0720220FEF771FA0220D2
:103C6000207307E003202073E07A401CE0720320F9
:103C7000FEF766FAE07A072803D23118227B203952
:103C8000CA7706280CD10025715D07A0FFF7C0F99F
:103C90006D1CEDB2062DF7D301250020E0722073D4
:103CA000284670BD0000002025640000F8B5514C86
:103CB000A07B012821D002281CD0042819D1FCF7B0
:103CC0004BFC012815D1E11D1220FEF706FEFF2155
:103CD0001220FEF701FFE079010703D50220A0734F
:103CE00045A004E0400604D50120A07346A0FFF7DC
:103CF0008FF9F8BDFEF78AFE77E046491320FEF7FC
:103D0000ECFD444F0B3FF87AF8724348FEF730FE63
:103D1000FEF77CFE0026404D06E0AA5D31463FA03E
:103D2000FFF776F9761CF6B2F87AB042F5D8314E44
:103D30003FA00F3672783178FFF76AF928785A2851
:103D400053D16878A52850D1A878317888424CD1D1
:103D5000E8787178884248D12879012845D1687976
:103D6000002604280CD009282FD0122802D01328AE
:103D70003BD108E034A0FFF74BF96671267234E0BE
:103D8000A671667231E0FEF741FE0120194BA0706A
:103D90009B1C0146184613220D3000F085F8607018
:103DA000F8721D483238FEF765FE0F20FEF7C8F99D
:103DB0007D25ED002846FCF7B3FD2846FCF7B0FD55
:103DC0006671267200F01EF90FE00A4900202831C2
:103DD0002A1892790A54401CC0B20628F8D3054824
:103DE000062214212830FCF7F1FBFEF715FE042013
:103DF000A073F8BD0000002073656E6420737563C6
:103E00006573730D0A000000727820737563657323
:103E1000730D0A004F0000208A000020525862757E
:103E2000666665725B25645D3D253032780D0A005B
:103E3000B5B1C7B0C9E8B1B8B5D8D6B73A25642D81
:103E400025640D0A00000000BAF3CCA8CAD5B5BDA0
:103E5000B1A8BEAFD6B8C1EE0D0A0000FCF75CFFFA
:103E6000FEF75AFEFEF756FAFEF71EFAFEF7EAFADA
:103E7000FEF73CFBFEF714FBFEF700FBFFF746FBEB
:103E8000FFF776FC0128FBD104A0FFF7C1F800F092
:103E9000B9F8FFF70BFFFFF7BFFBFAE7BDF8C8EB78
:103EA000736C656570000000F8B51F460D4C5A2311
:103EB0002370A52363700378A3704078E0702171AC
:103EC00006266271002505E0785DA055761C6D1C04
:103ED000F6B2EDB23846FCF763F9A842F4D83046A2
:103EE000F8BD00005800002070B51E4C1EA0217ABD
:103EF000FFF78EF8207A00280CD07D25ED000128F0
:103F000021D0022805D10420FEF71AF92846FCF733
:103F100007FD70BDFEF77AFD124B01259B1C18466C
:103F2000A570122229460D30FFF7BEFF60700146D2
:103F300011A0FFF76DF814496078C8721348FEF7B6
:103F400099FD257270BD12A0FFF762F80720FEF7F9
:103F5000F7F82846FCF7E4FC2846FCF7E1FC0220D1
:103F6000207270BD0000002072616E675F73746123
:103F700074653D25640000007061636B5F6C656E65
:103F80003D25640D0A000000440000205800002078
:103F9000D2BBBCFCC6F4B6AFB1A8BEAF0D0A0000E0
:103FA000084800210278012A06D0022A07D0032AF5
:103FB00001D101700320704701700120704701702A
:103FC000022070475000002010B5FCF7A5FEFEF758
:103FD000A3FD0A48FDF7B7FE0948FDF759FCFEF7B7
:103FE00099F9FEF761F9FEF72DFAFEF77FFAFEF771
:103FF00057FAFEF743FAFFF789FA10BD2C010020AB
:10400000D001002010B5FEF7F7FC00F003F800F037
:1040100071F810BDF0B5344C87B0A06B2104084393
:10402000A063FCF7E7FEFCF7DDFEE0680127FF0375
:10403000B843E060E06A04210843E062E06A0840B7
:104040000590E06A80210843E062E06A084005903C
:10405000E06A01210843E062E06A08400590E06AF6
:1040600002210843E062E06A009708400325002629
:1040700005906946029601951C48FCF777FD1020D3
:104080006A4661C2052069460007FCF76FFD002201
:1040900028211648FCF72BFE15486A4661C269467E
:1040A0001248FCF763FDA8026A4661C269460F48E0
:1040B000FCF75CFD05206946000700970296019514
:1040C000FCF754FDE06A40084000E062E16A02202B
:1040D0008143E162E06A04218843E062E16A802072
:1040E0008143E16207B0F0BD0010024000040050BF
:1040F0002971000010B5074901200870FFF744FA44
:104100000548816B02041143816301210846FCF7D5
:1041100079FE10BD320000200010024000000000B7
:104120000000000001020304060708090304060852
:104130000C101820300000000001020304000000F1
:10414000604100080000002058000000783000089E
:10415000B8410008580000202012000088300008F4
:10416000000000000000000000000400000000004B
:104170000000000080D60F1C40FF7A1D80FB651EEA
:1041800000A1BC33C0CA893601020302020200004A
:104190000000000000000000000020000000FA43C2
:1041A0006F12833F80A1031C9080020F0101014028
:0841B000000000000000000007
:04000005080000C12E
:00000001FF
